{
  "_format": "hh-sol-artifact-1",
  "contractName": "Art",
  "sourceName": "contracts/Art.sol",
  "abi": [
    {
      "inputs": [
        {
          "internalType": "string",
          "name": "name",
          "type": "string"
        },
        {
          "internalType": "string",
          "name": "symbol",
          "type": "string"
        },
        {
          "internalType": "uint256",
          "name": "fee",
          "type": "uint256"
        }
      ],
      "stateMutability": "nonpayable",
      "type": "constructor"
    },
    {
      "anonymous": false,
      "inputs": [
        {
          "indexed": true,
          "internalType": "address",
          "name": "owner",
          "type": "address"
        },
        {
          "indexed": true,
          "internalType": "address",
          "name": "approved",
          "type": "address"
        },
        {
          "indexed": true,
          "internalType": "uint256",
          "name": "tokenId",
          "type": "uint256"
        }
      ],
      "name": "Approval",
      "type": "event"
    },
    {
      "anonymous": false,
      "inputs": [
        {
          "indexed": true,
          "internalType": "address",
          "name": "owner",
          "type": "address"
        },
        {
          "indexed": true,
          "internalType": "address",
          "name": "operator",
          "type": "address"
        },
        {
          "indexed": false,
          "internalType": "bool",
          "name": "approved",
          "type": "bool"
        }
      ],
      "name": "ApprovalForAll",
      "type": "event"
    },
    {
      "anonymous": false,
      "inputs": [
        {
          "indexed": true,
          "internalType": "address",
          "name": "previousOwner",
          "type": "address"
        },
        {
          "indexed": true,
          "internalType": "address",
          "name": "newOwner",
          "type": "address"
        }
      ],
      "name": "OwnershipTransferred",
      "type": "event"
    },
    {
      "anonymous": false,
      "inputs": [
        {
          "indexed": false,
          "internalType": "address",
          "name": "account",
          "type": "address"
        }
      ],
      "name": "Paused",
      "type": "event"
    },
    {
      "anonymous": false,
      "inputs": [
        {
          "indexed": true,
          "internalType": "address",
          "name": "from",
          "type": "address"
        },
        {
          "indexed": true,
          "internalType": "address",
          "name": "to",
          "type": "address"
        },
        {
          "indexed": true,
          "internalType": "uint256",
          "name": "tokenId",
          "type": "uint256"
        }
      ],
      "name": "Transfer",
      "type": "event"
    },
    {
      "anonymous": false,
      "inputs": [
        {
          "indexed": false,
          "internalType": "address",
          "name": "account",
          "type": "address"
        }
      ],
      "name": "Unpaused",
      "type": "event"
    },
    {
      "inputs": [
        {
          "internalType": "address",
          "name": "to",
          "type": "address"
        },
        {
          "internalType": "uint256",
          "name": "tokenId",
          "type": "uint256"
        }
      ],
      "name": "approve",
      "outputs": [],
      "stateMutability": "nonpayable",
      "type": "function"
    },
    {
      "inputs": [
        {
          "internalType": "address",
          "name": "owner",
          "type": "address"
        }
      ],
      "name": "balanceOf",
      "outputs": [
        {
          "internalType": "uint256",
          "name": "",
          "type": "uint256"
        }
      ],
      "stateMutability": "view",
      "type": "function"
    },
    {
      "inputs": [
        {
          "internalType": "uint256",
          "name": "tokenId",
          "type": "uint256"
        }
      ],
      "name": "getApproved",
      "outputs": [
        {
          "internalType": "address",
          "name": "",
          "type": "address"
        }
      ],
      "stateMutability": "view",
      "type": "function"
    },
    {
      "inputs": [
        {
          "internalType": "address",
          "name": "owner",
          "type": "address"
        },
        {
          "internalType": "address",
          "name": "operator",
          "type": "address"
        }
      ],
      "name": "isApprovedForAll",
      "outputs": [
        {
          "internalType": "bool",
          "name": "",
          "type": "bool"
        }
      ],
      "stateMutability": "view",
      "type": "function"
    },
    {
      "inputs": [
        {
          "internalType": "string",
          "name": "_test",
          "type": "string"
        }
      ],
      "name": "isTokenURIEmpty",
      "outputs": [
        {
          "internalType": "bool",
          "name": "",
          "type": "bool"
        }
      ],
      "stateMutability": "pure",
      "type": "function"
    },
    {
      "inputs": [
        {
          "internalType": "string",
          "name": "_tokenURI",
          "type": "string"
        },
        {
          "internalType": "bool",
          "name": "isDrip",
          "type": "bool"
        }
      ],
      "name": "mint",
      "outputs": [],
      "stateMutability": "payable",
      "type": "function"
    },
    {
      "inputs": [],
      "name": "mintFee",
      "outputs": [
        {
          "internalType": "uint256",
          "name": "",
          "type": "uint256"
        }
      ],
      "stateMutability": "view",
      "type": "function"
    },
    {
      "inputs": [],
      "name": "name",
      "outputs": [
        {
          "internalType": "string",
          "name": "",
          "type": "string"
        }
      ],
      "stateMutability": "view",
      "type": "function"
    },
    {
      "inputs": [],
      "name": "owner",
      "outputs": [
        {
          "internalType": "address",
          "name": "",
          "type": "address"
        }
      ],
      "stateMutability": "view",
      "type": "function"
    },
    {
      "inputs": [
        {
          "internalType": "uint256",
          "name": "tokenId",
          "type": "uint256"
        }
      ],
      "name": "ownerOf",
      "outputs": [
        {
          "internalType": "address",
          "name": "",
          "type": "address"
        }
      ],
      "stateMutability": "view",
      "type": "function"
    },
    {
      "inputs": [],
      "name": "ownerWithdrawToFountain",
      "outputs": [],
      "stateMutability": "nonpayable",
      "type": "function"
    },
    {
      "inputs": [],
      "name": "paused",
      "outputs": [
        {
          "internalType": "bool",
          "name": "",
          "type": "bool"
        }
      ],
      "stateMutability": "view",
      "type": "function"
    },
    {
      "inputs": [],
      "name": "renounceOwnership",
      "outputs": [],
      "stateMutability": "nonpayable",
      "type": "function"
    },
    {
      "inputs": [
        {
          "internalType": "address",
          "name": "from",
          "type": "address"
        },
        {
          "internalType": "address",
          "name": "to",
          "type": "address"
        },
        {
          "internalType": "uint256",
          "name": "tokenId",
          "type": "uint256"
        }
      ],
      "name": "safeTransferFrom",
      "outputs": [],
      "stateMutability": "nonpayable",
      "type": "function"
    },
    {
      "inputs": [
        {
          "internalType": "address",
          "name": "from",
          "type": "address"
        },
        {
          "internalType": "address",
          "name": "to",
          "type": "address"
        },
        {
          "internalType": "uint256",
          "name": "tokenId",
          "type": "uint256"
        },
        {
          "internalType": "bytes",
          "name": "data",
          "type": "bytes"
        }
      ],
      "name": "safeTransferFrom",
      "outputs": [],
      "stateMutability": "nonpayable",
      "type": "function"
    },
    {
      "inputs": [
        {
          "internalType": "address",
          "name": "operator",
          "type": "address"
        },
        {
          "internalType": "bool",
          "name": "approved",
          "type": "bool"
        }
      ],
      "name": "setApprovalForAll",
      "outputs": [],
      "stateMutability": "nonpayable",
      "type": "function"
    },
    {
      "inputs": [
        {
          "internalType": "uint256",
          "name": "fee",
          "type": "uint256"
        }
      ],
      "name": "setMintFee",
      "outputs": [
        {
          "internalType": "uint256",
          "name": "",
          "type": "uint256"
        }
      ],
      "stateMutability": "nonpayable",
      "type": "function"
    },
    {
      "inputs": [
        {
          "internalType": "bytes4",
          "name": "interfaceId",
          "type": "bytes4"
        }
      ],
      "name": "supportsInterface",
      "outputs": [
        {
          "internalType": "bool",
          "name": "",
          "type": "bool"
        }
      ],
      "stateMutability": "view",
      "type": "function"
    },
    {
      "inputs": [],
      "name": "symbol",
      "outputs": [
        {
          "internalType": "string",
          "name": "",
          "type": "string"
        }
      ],
      "stateMutability": "view",
      "type": "function"
    },
    {
      "inputs": [],
      "name": "tokenCount",
      "outputs": [
        {
          "internalType": "uint256",
          "name": "_value",
          "type": "uint256"
        }
      ],
      "stateMutability": "view",
      "type": "function"
    },
    {
      "inputs": [
        {
          "internalType": "uint256",
          "name": "_tokenId",
          "type": "uint256"
        }
      ],
      "name": "tokenURI",
      "outputs": [
        {
          "internalType": "string",
          "name": "",
          "type": "string"
        }
      ],
      "stateMutability": "view",
      "type": "function"
    },
    {
      "inputs": [
        {
          "internalType": "address",
          "name": "from",
          "type": "address"
        },
        {
          "internalType": "address",
          "name": "to",
          "type": "address"
        },
        {
          "internalType": "uint256",
          "name": "tokenId",
          "type": "uint256"
        }
      ],
      "name": "transferFrom",
      "outputs": [],
      "stateMutability": "nonpayable",
      "type": "function"
    },
    {
      "inputs": [
        {
          "internalType": "address",
          "name": "newOwner",
          "type": "address"
        }
      ],
      "name": "transferOwnership",
      "outputs": [],
      "stateMutability": "nonpayable",
      "type": "function"
    }
  ],
  "bytecode": "0x60806040523480156200001157600080fd5b506040516200375b3803806200375b8339818101604052810190620000379190620002e5565b8282816000908051906020019062000051929190620001ac565b5080600190805190602001906200006a929190620001ac565b5050506000600660006101000a81548160ff021916908315150217905550620000a86200009c620000d060201b60201c565b620000d860201b60201c565b620000bf60076200019e60201b62000ff91760201c565b508060088190555050505062000501565b600033905090565b6000600660019054906101000a900473ffffffffffffffffffffffffffffffffffffffff16905081600660016101000a81548173ffffffffffffffffffffffffffffffffffffffff021916908373ffffffffffffffffffffffffffffffffffffffff1602179055508173ffffffffffffffffffffffffffffffffffffffff168173ffffffffffffffffffffffffffffffffffffffff167f8be0079c531659141344cd1fd0a4f28419497f9722a3daafe3b4186f6b6457e060405160405180910390a35050565b600081600001549050919050565b828054620001ba906200040c565b90600052602060002090601f016020900481019282620001de57600085556200022a565b82601f10620001f957805160ff19168380011785556200022a565b828001600101855582156200022a579182015b82811115620002295782518255916020019190600101906200020c565b5b5090506200023991906200023d565b5090565b5b80821115620002585760008160009055506001016200023e565b5090565b6000620002736200026d8462000396565b6200036d565b9050828152602081018484840111156200028c57600080fd5b62000299848285620003d6565b509392505050565b600082601f830112620002b357600080fd5b8151620002c58482602086016200025c565b91505092915050565b600081519050620002df81620004e7565b92915050565b600080600060608486031215620002fb57600080fd5b600084015167ffffffffffffffff8111156200031657600080fd5b6200032486828701620002a1565b935050602084015167ffffffffffffffff8111156200034257600080fd5b6200035086828701620002a1565b92505060406200036386828701620002ce565b9150509250925092565b6000620003796200038c565b905062000387828262000442565b919050565b6000604051905090565b600067ffffffffffffffff821115620003b457620003b3620004a7565b5b620003bf82620004d6565b9050602081019050919050565b6000819050919050565b60005b83811015620003f6578082015181840152602081019050620003d9565b8381111562000406576000848401525b50505050565b600060028204905060018216806200042557607f821691505b602082108114156200043c576200043b62000478565b5b50919050565b6200044d82620004d6565b810181811067ffffffffffffffff821117156200046f576200046e620004a7565b5b80604052505050565b7f4e487b7100000000000000000000000000000000000000000000000000000000600052602260045260246000fd5b7f4e487b7100000000000000000000000000000000000000000000000000000000600052604160045260246000fd5b6000601f19601f8301169050919050565b620004f281620003cc565b8114620004fe57600080fd5b50565b61324a80620005116000396000f3fe6080604052600436106101405760003560e01c80636352211e116100b6578063a22cb4651161006f578063a22cb4651461043d578063b88d4fde14610466578063c87b56dd1461048f578063e985e9c5146104cc578063eddd0d9c14610509578063f2fde38b1461054657610140565b80636352211e1461032b57806370a0823114610368578063715018a6146103a55780638da5cb5b146103bc57806395d89b41146103e75780639f181b5e1461041257610140565b806315a50ed61161010857806315a50ed61461023e5780631d089e511461025557806323b872dd1461029257806342842e0e146102bb5780635c975abb146102e45780635f257f291461030f57610140565b806301ffc9a71461014557806306fdde0314610182578063081812fc146101ad578063095ea7b3146101ea57806313966db514610213575b600080fd5b34801561015157600080fd5b5061016c6004803603810190610167919061237c565b61056f565b60405161017991906127e5565b60405180910390f35b34801561018e57600080fd5b50610197610651565b6040516101a49190612800565b60405180910390f35b3480156101b957600080fd5b506101d460048036038101906101cf9190612463565b6106e3565b6040516101e1919061277e565b60405180910390f35b3480156101f657600080fd5b50610211600480360381019061020c9190612340565b610729565b005b34801561021f57600080fd5b50610228610841565b6040516102359190612a42565b60405180910390f35b34801561024a57600080fd5b50610253610847565b005b34801561026157600080fd5b5061027c600480360381019061027791906123ce565b6108e2565b60405161028991906127e5565b60405180910390f35b34801561029e57600080fd5b506102b960048036038101906102b4919061223a565b610908565b005b3480156102c757600080fd5b506102e260048036038101906102dd919061223a565b610968565b005b3480156102f057600080fd5b506102f9610988565b60405161030691906127e5565b60405180910390f35b6103296004803603810190610324919061240f565b61099f565b005b34801561033757600080fd5b50610352600480360381019061034d9190612463565b610b4e565b60405161035f919061277e565b60405180910390f35b34801561037457600080fd5b5061038f600480360381019061038a91906121d5565b610bd5565b60405161039c9190612a42565b60405180910390f35b3480156103b157600080fd5b506103ba610c8d565b005b3480156103c857600080fd5b506103d1610ca1565b6040516103de919061277e565b60405180910390f35b3480156103f357600080fd5b506103fc610ccb565b6040516104099190612800565b60405180910390f35b34801561041e57600080fd5b50610427610d5d565b6040516104349190612a42565b60405180910390f35b34801561044957600080fd5b50610464600480360381019061045f9190612304565b610d69565b005b34801561047257600080fd5b5061048d60048036038101906104889190612289565b610d7f565b005b34801561049b57600080fd5b506104b660048036038101906104b19190612463565b610de1565b6040516104c39190612800565b60405180910390f35b3480156104d857600080fd5b506104f360048036038101906104ee91906121fe565b610ece565b60405161050091906127e5565b60405180910390f35b34801561051557600080fd5b50610530600480360381019061052b9190612463565b610f62565b60405161053d9190612a42565b60405180910390f35b34801561055257600080fd5b5061056d600480360381019061056891906121d5565b610f75565b005b60007f80ac58cd000000000000000000000000000000000000000000000000000000007bffffffffffffffffffffffffffffffffffffffffffffffffffffffff1916827bffffffffffffffffffffffffffffffffffffffffffffffffffffffff1916148061063a57507f5b5e139f000000000000000000000000000000000000000000000000000000007bffffffffffffffffffffffffffffffffffffffffffffffffffffffff1916827bffffffffffffffffffffffffffffffffffffffffffffffffffffffff1916145b8061064a575061064982611007565b5b9050919050565b60606000805461066090612c5c565b80601f016020809104026020016040519081016040528092919081815260200182805461068c90612c5c565b80156106d95780601f106106ae576101008083540402835291602001916106d9565b820191906000526020600020905b8154815290600101906020018083116106bc57829003601f168201915b5050505050905090565b60006106ee82611071565b6004600083815260200190815260200160002060009054906101000a900473ffffffffffffffffffffffffffffffffffffffff169050919050565b600061073482610b4e565b90508073ffffffffffffffffffffffffffffffffffffffff168373ffffffffffffffffffffffffffffffffffffffff1614156107a5576040517f08c379a000000000000000000000000000000000000000000000000000000000815260040161079c906129e2565b60405180910390fd5b8073ffffffffffffffffffffffffffffffffffffffff166107c46110bc565b73ffffffffffffffffffffffffffffffffffffffff1614806107f357506107f2816107ed6110bc565b610ece565b5b610832576040517f08c379a000000000000000000000000000000000000000000000000000000000815260040161082990612a22565b60405180910390fd5b61083c83836110c4565b505050565b60085481565b61084f61117d565b60004711610892576040517f08c379a0000000000000000000000000000000000000000000000000000000008152600401610889906129a2565b60405180910390fd5b61089a610ca1565b73ffffffffffffffffffffffffffffffffffffffff166108fc479081150290604051600060405180830381858888f193505050501580156108df573d6000803e3d6000fd5b50565b6000808290506000808251116108f95760016108fc565b60005b90508092505050919050565b6109196109136110bc565b826111fb565b610958576040517f08c379a000000000000000000000000000000000000000000000000000000000815260040161094f90612822565b60405180910390fd5b610963838383611290565b505050565b61098383838360405180602001604052806000815250610d7f565b505050565b6000600660009054906101000a900460ff16905090565b6109a8826108e2565b156109e8576040517f08c379a00000000000000000000000000000000000000000000000000000000081526004016109df90612842565b60405180910390fd5b6109f360085461158a565b600090508015610a4357600854341015610a42576040517f08c379a0000000000000000000000000000000000000000000000000000000008152600401610a3990612a02565b60405180910390fd5b5b610a5633610a516007610ff9565b611623565b610a69610a636007610ff9565b83611641565b610a7360076116b5565b610ab16040518060400160405280600881526020017f6d696e74206665650000000000000000000000000000000000000000000000008152506116cb565b610abc60085461158a565b610afa6040518060400160405280601381526020017f4e4654206d696e74207375636365737366756c000000000000000000000000008152506116cb565b610b386040518060400160405280600b81526020017f546f6b656e20436f756e740000000000000000000000000000000000000000008152506116cb565b610b4a610b456007610ff9565b61158a565b5050565b600080610b5a83611764565b9050600073ffffffffffffffffffffffffffffffffffffffff168173ffffffffffffffffffffffffffffffffffffffff161415610bcc576040517f08c379a0000000000000000000000000000000000000000000000000000000008152600401610bc3906129c2565b60405180910390fd5b80915050919050565b60008073ffffffffffffffffffffffffffffffffffffffff168273ffffffffffffffffffffffffffffffffffffffff161415610c46576040517f08c379a0000000000000000000000000000000000000000000000000000000008152600401610c3d90612942565b60405180910390fd5b600360008373ffffffffffffffffffffffffffffffffffffffff1673ffffffffffffffffffffffffffffffffffffffff168152602001908152602001600020549050919050565b610c9561117d565b610c9f60006117a1565b565b6000600660019054906101000a900473ffffffffffffffffffffffffffffffffffffffff16905090565b606060018054610cda90612c5c565b80601f0160208091040260200160405190810160405280929190818152602001828054610d0690612c5c565b8015610d535780601f10610d2857610100808354040283529160200191610d53565b820191906000526020600020905b815481529060010190602001808311610d3657829003601f168201915b5050505050905090565b60078060000154905081565b610d7b610d746110bc565b8383611867565b5050565b610d90610d8a6110bc565b836111fb565b610dcf576040517f08c379a0000000000000000000000000000000000000000000000000000000008152600401610dc690612822565b60405180910390fd5b610ddb848484846119d4565b50505050565b6060610dec82611a30565b610e2b576040517f08c379a0000000000000000000000000000000000000000000000000000000008152600401610e22906128e2565b60405180910390fd5b600960008381526020019081526020016000208054610e4990612c5c565b80601f0160208091040260200160405190810160405280929190818152602001828054610e7590612c5c565b8015610ec25780601f10610e9757610100808354040283529160200191610ec2565b820191906000526020600020905b815481529060010190602001808311610ea557829003601f168201915b50505050509050919050565b6000600560008473ffffffffffffffffffffffffffffffffffffffff1673ffffffffffffffffffffffffffffffffffffffff16815260200190815260200160002060008373ffffffffffffffffffffffffffffffffffffffff1673ffffffffffffffffffffffffffffffffffffffff16815260200190815260200160002060009054906101000a900460ff16905092915050565b6000816008819055506008549050919050565b610f7d61117d565b600073ffffffffffffffffffffffffffffffffffffffff168173ffffffffffffffffffffffffffffffffffffffff161415610fed576040517f08c379a0000000000000000000000000000000000000000000000000000000008152600401610fe490612882565b60405180910390fd5b610ff6816117a1565b50565b600081600001549050919050565b60007f01ffc9a7000000000000000000000000000000000000000000000000000000007bffffffffffffffffffffffffffffffffffffffffffffffffffffffff1916827bffffffffffffffffffffffffffffffffffffffffffffffffffffffff1916149050919050565b61107a81611a30565b6110b9576040517f08c379a00000000000000000000000000000000000000000000000000000000081526004016110b0906129c2565b60405180910390fd5b50565b600033905090565b816004600083815260200190815260200160002060006101000a81548173ffffffffffffffffffffffffffffffffffffffff021916908373ffffffffffffffffffffffffffffffffffffffff160217905550808273ffffffffffffffffffffffffffffffffffffffff1661113783610b4e565b73ffffffffffffffffffffffffffffffffffffffff167f8c5be1e5ebec7d5bd14f71427d1e84f3dd0314c0f7b2291e5b200ac8c7c3b92560405160405180910390a45050565b6111856110bc565b73ffffffffffffffffffffffffffffffffffffffff166111a3610ca1565b73ffffffffffffffffffffffffffffffffffffffff16146111f9576040517f08c379a00000000000000000000000000000000000000000000000000000000081526004016111f090612982565b60405180910390fd5b565b60008061120783610b4e565b90508073ffffffffffffffffffffffffffffffffffffffff168473ffffffffffffffffffffffffffffffffffffffff16148061124957506112488185610ece565b5b8061128757508373ffffffffffffffffffffffffffffffffffffffff1661126f846106e3565b73ffffffffffffffffffffffffffffffffffffffff16145b91505092915050565b8273ffffffffffffffffffffffffffffffffffffffff166112b082610b4e565b73ffffffffffffffffffffffffffffffffffffffff1614611306576040517f08c379a00000000000000000000000000000000000000000000000000000000081526004016112fd906128a2565b60405180910390fd5b600073ffffffffffffffffffffffffffffffffffffffff168273ffffffffffffffffffffffffffffffffffffffff161415611376576040517f08c379a000000000000000000000000000000000000000000000000000000000815260040161136d90612902565b60405180910390fd5b6113838383836001611a71565b8273ffffffffffffffffffffffffffffffffffffffff166113a382610b4e565b73ffffffffffffffffffffffffffffffffffffffff16146113f9576040517f08c379a00000000000000000000000000000000000000000000000000000000081526004016113f0906128a2565b60405180910390fd5b6004600082815260200190815260200160002060006101000a81549073ffffffffffffffffffffffffffffffffffffffff02191690556001600360008573ffffffffffffffffffffffffffffffffffffffff1673ffffffffffffffffffffffffffffffffffffffff168152602001908152602001600020600082825403925050819055506001600360008473ffffffffffffffffffffffffffffffffffffffff1673ffffffffffffffffffffffffffffffffffffffff16815260200190815260200160002060008282540192505081905550816002600083815260200190815260200160002060006101000a81548173ffffffffffffffffffffffffffffffffffffffff021916908373ffffffffffffffffffffffffffffffffffffffff160217905550808273ffffffffffffffffffffffffffffffffffffffff168473ffffffffffffffffffffffffffffffffffffffff167fddf252ad1be2c89b69c2b068fc378daa952ba7f163c4a11628f55a4df523b3ef60405160405180910390a46115858383836001611b97565b505050565b6116208160405160240161159e9190612a42565b6040516020818303038152906040527ff82c50f1000000000000000000000000000000000000000000000000000000007bffffffffffffffffffffffffffffffffffffffffffffffffffffffff19166020820180517bffffffffffffffffffffffffffffffffffffffffffffffffffffffff8381831617835250505050611b9d565b50565b61163d828260405180602001604052806000815250611bc6565b5050565b61164a82611a30565b611689576040517f08c379a0000000000000000000000000000000000000000000000000000000008152600401611680906128e2565b60405180910390fd5b806009600084815260200190815260200160002090805190602001906116b0929190611ff9565b505050565b6001816000016000828254019250508190555050565b611761816040516024016116df9190612800565b6040516020818303038152906040527f41304fac000000000000000000000000000000000000000000000000000000007bffffffffffffffffffffffffffffffffffffffffffffffffffffffff19166020820180517bffffffffffffffffffffffffffffffffffffffffffffffffffffffff8381831617835250505050611b9d565b50565b60006002600083815260200190815260200160002060009054906101000a900473ffffffffffffffffffffffffffffffffffffffff169050919050565b6000600660019054906101000a900473ffffffffffffffffffffffffffffffffffffffff16905081600660016101000a81548173ffffffffffffffffffffffffffffffffffffffff021916908373ffffffffffffffffffffffffffffffffffffffff1602179055508173ffffffffffffffffffffffffffffffffffffffff168173ffffffffffffffffffffffffffffffffffffffff167f8be0079c531659141344cd1fd0a4f28419497f9722a3daafe3b4186f6b6457e060405160405180910390a35050565b8173ffffffffffffffffffffffffffffffffffffffff168373ffffffffffffffffffffffffffffffffffffffff1614156118d6576040517f08c379a00000000000000000000000000000000000000000000000000000000081526004016118cd90612922565b60405180910390fd5b80600560008573ffffffffffffffffffffffffffffffffffffffff1673ffffffffffffffffffffffffffffffffffffffff16815260200190815260200160002060008473ffffffffffffffffffffffffffffffffffffffff1673ffffffffffffffffffffffffffffffffffffffff16815260200190815260200160002060006101000a81548160ff0219169083151502179055508173ffffffffffffffffffffffffffffffffffffffff168373ffffffffffffffffffffffffffffffffffffffff167f17307eab39ab6107e8899845ad3d59bd9653f200f220920489ca2b5937696c31836040516119c791906127e5565b60405180910390a3505050565b6119df848484611290565b6119eb84848484611c21565b611a2a576040517f08c379a0000000000000000000000000000000000000000000000000000000008152600401611a2190612862565b60405180910390fd5b50505050565b60008073ffffffffffffffffffffffffffffffffffffffff16611a5283611764565b73ffffffffffffffffffffffffffffffffffffffff1614159050919050565b6001811115611b9157600073ffffffffffffffffffffffffffffffffffffffff168473ffffffffffffffffffffffffffffffffffffffff1614611b055780600360008673ffffffffffffffffffffffffffffffffffffffff1673ffffffffffffffffffffffffffffffffffffffff1681526020019081526020016000206000828254611afd9190612b72565b925050819055505b600073ffffffffffffffffffffffffffffffffffffffff168373ffffffffffffffffffffffffffffffffffffffff1614611b905780600360008573ffffffffffffffffffffffffffffffffffffffff1673ffffffffffffffffffffffffffffffffffffffff1681526020019081526020016000206000828254611b889190612b1c565b925050819055505b5b50505050565b50505050565b60008151905060006a636f6e736f6c652e6c6f679050602083016000808483855afa5050505050565b611bd08383611db8565b611bdd6000848484611c21565b611c1c576040517f08c379a0000000000000000000000000000000000000000000000000000000008152600401611c1390612862565b60405180910390fd5b505050565b6000611c428473ffffffffffffffffffffffffffffffffffffffff16611fd6565b15611dab578373ffffffffffffffffffffffffffffffffffffffff1663150b7a02611c6b6110bc565b8786866040518563ffffffff1660e01b8152600401611c8d9493929190612799565b602060405180830381600087803b158015611ca757600080fd5b505af1925050508015611cd857506040513d601f19601f82011682018060405250810190611cd591906123a5565b60015b611d5b573d8060008114611d08576040519150601f19603f3d011682016040523d82523d6000602084013e611d0d565b606091505b50600081511415611d53576040517f08c379a0000000000000000000000000000000000000000000000000000000008152600401611d4a90612862565b60405180910390fd5b805181602001fd5b63150b7a0260e01b7bffffffffffffffffffffffffffffffffffffffffffffffffffffffff1916817bffffffffffffffffffffffffffffffffffffffffffffffffffffffff191614915050611db0565b600190505b949350505050565b600073ffffffffffffffffffffffffffffffffffffffff168273ffffffffffffffffffffffffffffffffffffffff161415611e28576040517f08c379a0000000000000000000000000000000000000000000000000000000008152600401611e1f90612962565b60405180910390fd5b611e3181611a30565b15611e71576040517f08c379a0000000000000000000000000000000000000000000000000000000008152600401611e68906128c2565b60405180910390fd5b611e7f600083836001611a71565b611e8881611a30565b15611ec8576040517f08c379a0000000000000000000000000000000000000000000000000000000008152600401611ebf906128c2565b60405180910390fd5b6001600360008473ffffffffffffffffffffffffffffffffffffffff1673ffffffffffffffffffffffffffffffffffffffff16815260200190815260200160002060008282540192505081905550816002600083815260200190815260200160002060006101000a81548173ffffffffffffffffffffffffffffffffffffffff021916908373ffffffffffffffffffffffffffffffffffffffff160217905550808273ffffffffffffffffffffffffffffffffffffffff16600073ffffffffffffffffffffffffffffffffffffffff167fddf252ad1be2c89b69c2b068fc378daa952ba7f163c4a11628f55a4df523b3ef60405160405180910390a4611fd2600083836001611b97565b5050565b6000808273ffffffffffffffffffffffffffffffffffffffff163b119050919050565b82805461200590612c5c565b90600052602060002090601f016020900481019282612027576000855561206e565b82601f1061204057805160ff191683800117855561206e565b8280016001018555821561206e579182015b8281111561206d578251825591602001919060010190612052565b5b50905061207b919061207f565b5090565b5b80821115612098576000816000905550600101612080565b5090565b60006120af6120aa84612a82565b612a5d565b9050828152602081018484840111156120c757600080fd5b6120d2848285612c1a565b509392505050565b60006120ed6120e884612ab3565b612a5d565b90508281526020810184848401111561210557600080fd5b612110848285612c1a565b509392505050565b600081359050612127816131b8565b92915050565b60008135905061213c816131cf565b92915050565b600081359050612151816131e6565b92915050565b600081519050612166816131e6565b92915050565b600082601f83011261217d57600080fd5b813561218d84826020860161209c565b91505092915050565b600082601f8301126121a757600080fd5b81356121b78482602086016120da565b91505092915050565b6000813590506121cf816131fd565b92915050565b6000602082840312156121e757600080fd5b60006121f584828501612118565b91505092915050565b6000806040838503121561221157600080fd5b600061221f85828601612118565b925050602061223085828601612118565b9150509250929050565b60008060006060848603121561224f57600080fd5b600061225d86828701612118565b935050602061226e86828701612118565b925050604061227f868287016121c0565b9150509250925092565b6000806000806080858703121561229f57600080fd5b60006122ad87828801612118565b94505060206122be87828801612118565b93505060406122cf878288016121c0565b925050606085013567ffffffffffffffff8111156122ec57600080fd5b6122f88782880161216c565b91505092959194509250565b6000806040838503121561231757600080fd5b600061232585828601612118565b92505060206123368582860161212d565b9150509250929050565b6000806040838503121561235357600080fd5b600061236185828601612118565b9250506020612372858286016121c0565b9150509250929050565b60006020828403121561238e57600080fd5b600061239c84828501612142565b91505092915050565b6000602082840312156123b757600080fd5b60006123c584828501612157565b91505092915050565b6000602082840312156123e057600080fd5b600082013567ffffffffffffffff8111156123fa57600080fd5b61240684828501612196565b91505092915050565b6000806040838503121561242257600080fd5b600083013567ffffffffffffffff81111561243c57600080fd5b61244885828601612196565b92505060206124598582860161212d565b9150509250929050565b60006020828403121561247557600080fd5b6000612483848285016121c0565b91505092915050565b61249581612ba6565b82525050565b6124a481612bb8565b82525050565b60006124b582612ae4565b6124bf8185612afa565b93506124cf818560208601612c29565b6124d881612d4c565b840191505092915050565b60006124ee82612aef565b6124f88185612b0b565b9350612508818560208601612c29565b61251181612d4c565b840191505092915050565b6000612529602d83612b0b565b915061253482612d5d565b604082019050919050565b600061254c602283612b0b565b915061255782612dac565b604082019050919050565b600061256f603283612b0b565b915061257a82612dfb565b604082019050919050565b6000612592602683612b0b565b915061259d82612e4a565b604082019050919050565b60006125b5602583612b0b565b91506125c082612e99565b604082019050919050565b60006125d8601c83612b0b565b91506125e382612ee8565b602082019050919050565b60006125fb603483612b0b565b915061260682612f11565b604082019050919050565b600061261e602483612b0b565b915061262982612f60565b604082019050919050565b6000612641601983612b0b565b915061264c82612faf565b602082019050919050565b6000612664602983612b0b565b915061266f82612fd8565b604082019050919050565b6000612687602083612b0b565b915061269282613027565b602082019050919050565b60006126aa602083612b0b565b91506126b582613050565b602082019050919050565b60006126cd602983612b0b565b91506126d882613079565b604082019050919050565b60006126f0601883612b0b565b91506126fb826130c8565b602082019050919050565b6000612713602183612b0b565b915061271e826130f1565b604082019050919050565b6000612736601383612b0b565b915061274182613140565b602082019050919050565b6000612759603d83612b0b565b915061276482613169565b604082019050919050565b61277881612c10565b82525050565b6000602082019050612793600083018461248c565b92915050565b60006080820190506127ae600083018761248c565b6127bb602083018661248c565b6127c8604083018561276f565b81810360608301526127da81846124aa565b905095945050505050565b60006020820190506127fa600083018461249b565b92915050565b6000602082019050818103600083015261281a81846124e3565b905092915050565b6000602082019050818103600083015261283b8161251c565b9050919050565b6000602082019050818103600083015261285b8161253f565b9050919050565b6000602082019050818103600083015261287b81612562565b9050919050565b6000602082019050818103600083015261289b81612585565b9050919050565b600060208201905081810360008301526128bb816125a8565b9050919050565b600060208201905081810360008301526128db816125cb565b9050919050565b600060208201905081810360008301526128fb816125ee565b9050919050565b6000602082019050818103600083015261291b81612611565b9050919050565b6000602082019050818103600083015261293b81612634565b9050919050565b6000602082019050818103600083015261295b81612657565b9050919050565b6000602082019050818103600083015261297b8161267a565b9050919050565b6000602082019050818103600083015261299b8161269d565b9050919050565b600060208201905081810360008301526129bb816126c0565b9050919050565b600060208201905081810360008301526129db816126e3565b9050919050565b600060208201905081810360008301526129fb81612706565b9050919050565b60006020820190508181036000830152612a1b81612729565b9050919050565b60006020820190508181036000830152612a3b8161274c565b9050919050565b6000602082019050612a57600083018461276f565b92915050565b6000612a67612a78565b9050612a738282612c8e565b919050565b6000604051905090565b600067ffffffffffffffff821115612a9d57612a9c612d1d565b5b612aa682612d4c565b9050602081019050919050565b600067ffffffffffffffff821115612ace57612acd612d1d565b5b612ad782612d4c565b9050602081019050919050565b600081519050919050565b600081519050919050565b600082825260208201905092915050565b600082825260208201905092915050565b6000612b2782612c10565b9150612b3283612c10565b9250827fffffffffffffffffffffffffffffffffffffffffffffffffffffffffffffffff03821115612b6757612b66612cbf565b5b828201905092915050565b6000612b7d82612c10565b9150612b8883612c10565b925082821015612b9b57612b9a612cbf565b5b828203905092915050565b6000612bb182612bf0565b9050919050565b60008115159050919050565b60007fffffffff0000000000000000000000000000000000000000000000000000000082169050919050565b600073ffffffffffffffffffffffffffffffffffffffff82169050919050565b6000819050919050565b82818337600083830152505050565b60005b83811015612c47578082015181840152602081019050612c2c565b83811115612c56576000848401525b50505050565b60006002820490506001821680612c7457607f821691505b60208210811415612c8857612c87612cee565b5b50919050565b612c9782612d4c565b810181811067ffffffffffffffff82111715612cb657612cb5612d1d565b5b80604052505050565b7f4e487b7100000000000000000000000000000000000000000000000000000000600052601160045260246000fd5b7f4e487b7100000000000000000000000000000000000000000000000000000000600052602260045260246000fd5b7f4e487b7100000000000000000000000000000000000000000000000000000000600052604160045260246000fd5b6000601f19601f8301169050919050565b7f4552433732313a2063616c6c6572206973206e6f7420746f6b656e206f776e6560008201527f72206f7220617070726f76656400000000000000000000000000000000000000602082015250565b7f596f75206d7573742070726f7669646520612076616c696420546f6b656e205560008201527f5249000000000000000000000000000000000000000000000000000000000000602082015250565b7f4552433732313a207472616e7366657220746f206e6f6e20455243373231526560008201527f63656976657220696d706c656d656e7465720000000000000000000000000000602082015250565b7f4f776e61626c653a206e6577206f776e657220697320746865207a65726f206160008201527f6464726573730000000000000000000000000000000000000000000000000000602082015250565b7f4552433732313a207472616e736665722066726f6d20696e636f72726563742060008201527f6f776e6572000000000000000000000000000000000000000000000000000000602082015250565b7f4552433732313a20746f6b656e20616c7265616479206d696e74656400000000600082015250565b7f4552433732314d657461646174613a205552492073657420746f206120746f6b60008201527f656e207468617420646f65736e74206578697374000000000000000000000000602082015250565b7f4552433732313a207472616e7366657220746f20746865207a65726f2061646460008201527f7265737300000000000000000000000000000000000000000000000000000000602082015250565b7f4552433732313a20617070726f766520746f2063616c6c657200000000000000600082015250565b7f4552433732313a2061646472657373207a65726f206973206e6f74206120766160008201527f6c6964206f776e65720000000000000000000000000000000000000000000000602082015250565b7f4552433732313a206d696e7420746f20746865207a65726f2061646472657373600082015250565b7f4f776e61626c653a2063616c6c6572206973206e6f7420746865206f776e6572600082015250565b7f5468657265206973206e6f7468696e6720746f20636f6c6c6563742e2042616c60008201527f616e636520697320300000000000000000000000000000000000000000000000602082015250565b7f4552433732313a20696e76616c696420746f6b656e2049440000000000000000600082015250565b7f4552433732313a20617070726f76616c20746f2063757272656e74206f776e6560008201527f7200000000000000000000000000000000000000000000000000000000000000602082015250565b7f596f75206d757374207370656e64206d6f726500000000000000000000000000600082015250565b7f4552433732313a20617070726f76652063616c6c6572206973206e6f7420746f60008201527f6b656e206f776e6572206f7220617070726f76656420666f7220616c6c000000602082015250565b6131c181612ba6565b81146131cc57600080fd5b50565b6131d881612bb8565b81146131e357600080fd5b50565b6131ef81612bc4565b81146131fa57600080fd5b50565b61320681612c10565b811461321157600080fd5b5056fea2646970667358221220af6d723b32a307c07ec0686478c7c19bb0b8deafc29d57d55c4db4de5e459d5764736f6c63430008040033",
  "linkReferences": {},
  "deployedLinkReferences": {}
}