{
  "_format": "hh-sol-artifact-1",
  "contractName": "Art",
  "sourceName": "contracts/Art.sol",
  "abi": [
    {
      "inputs": [
        {
          "internalType": "string",
          "name": "name",
          "type": "string"
        },
        {
          "internalType": "string",
          "name": "symbol",
          "type": "string"
        },
        {
          "internalType": "uint256",
          "name": "fee",
          "type": "uint256"
        }
      ],
      "stateMutability": "nonpayable",
      "type": "constructor"
    },
    {
      "anonymous": false,
      "inputs": [
        {
          "indexed": true,
          "internalType": "address",
          "name": "owner",
          "type": "address"
        },
        {
          "indexed": true,
          "internalType": "address",
          "name": "approved",
          "type": "address"
        },
        {
          "indexed": true,
          "internalType": "uint256",
          "name": "tokenId",
          "type": "uint256"
        }
      ],
      "name": "Approval",
      "type": "event"
    },
    {
      "anonymous": false,
      "inputs": [
        {
          "indexed": true,
          "internalType": "address",
          "name": "owner",
          "type": "address"
        },
        {
          "indexed": true,
          "internalType": "address",
          "name": "operator",
          "type": "address"
        },
        {
          "indexed": false,
          "internalType": "bool",
          "name": "approved",
          "type": "bool"
        }
      ],
      "name": "ApprovalForAll",
      "type": "event"
    },
    {
      "anonymous": false,
      "inputs": [
        {
          "indexed": true,
          "internalType": "address",
          "name": "from",
          "type": "address"
        },
        {
          "indexed": true,
          "internalType": "address",
          "name": "to",
          "type": "address"
        },
        {
          "indexed": true,
          "internalType": "uint256",
          "name": "tokenId",
          "type": "uint256"
        }
      ],
      "name": "Transfer",
      "type": "event"
    },
    {
      "inputs": [
        {
          "internalType": "address",
          "name": "to",
          "type": "address"
        },
        {
          "internalType": "uint256",
          "name": "tokenId",
          "type": "uint256"
        }
      ],
      "name": "approve",
      "outputs": [],
      "stateMutability": "nonpayable",
      "type": "function"
    },
    {
      "inputs": [
        {
          "internalType": "address",
          "name": "owner",
          "type": "address"
        }
      ],
      "name": "balanceOf",
      "outputs": [
        {
          "internalType": "uint256",
          "name": "",
          "type": "uint256"
        }
      ],
      "stateMutability": "view",
      "type": "function"
    },
    {
      "inputs": [
        {
          "internalType": "uint256",
          "name": "tokenId",
          "type": "uint256"
        }
      ],
      "name": "getApproved",
      "outputs": [
        {
          "internalType": "address",
          "name": "",
          "type": "address"
        }
      ],
      "stateMutability": "view",
      "type": "function"
    },
    {
      "inputs": [
        {
          "internalType": "address",
          "name": "owner",
          "type": "address"
        },
        {
          "internalType": "address",
          "name": "operator",
          "type": "address"
        }
      ],
      "name": "isApprovedForAll",
      "outputs": [
        {
          "internalType": "bool",
          "name": "",
          "type": "bool"
        }
      ],
      "stateMutability": "view",
      "type": "function"
    },
    {
      "inputs": [
        {
          "internalType": "string",
          "name": "_test",
          "type": "string"
        }
      ],
      "name": "isTokenURIEmpty",
      "outputs": [
        {
          "internalType": "bool",
          "name": "",
          "type": "bool"
        }
      ],
      "stateMutability": "pure",
      "type": "function"
    },
    {
      "inputs": [
        {
          "internalType": "string",
          "name": "_tokenURI",
          "type": "string"
        }
      ],
      "name": "mint",
      "outputs": [],
      "stateMutability": "payable",
      "type": "function"
    },
    {
      "inputs": [],
      "name": "mintFee",
      "outputs": [
        {
          "internalType": "uint256",
          "name": "",
          "type": "uint256"
        }
      ],
      "stateMutability": "view",
      "type": "function"
    },
    {
      "inputs": [],
      "name": "name",
      "outputs": [
        {
          "internalType": "string",
          "name": "",
          "type": "string"
        }
      ],
      "stateMutability": "view",
      "type": "function"
    },
    {
      "inputs": [],
      "name": "owner",
      "outputs": [
        {
          "internalType": "address",
          "name": "",
          "type": "address"
        }
      ],
      "stateMutability": "view",
      "type": "function"
    },
    {
      "inputs": [
        {
          "internalType": "uint256",
          "name": "tokenId",
          "type": "uint256"
        }
      ],
      "name": "ownerOf",
      "outputs": [
        {
          "internalType": "address",
          "name": "",
          "type": "address"
        }
      ],
      "stateMutability": "view",
      "type": "function"
    },
    {
      "inputs": [
        {
          "internalType": "address",
          "name": "from",
          "type": "address"
        },
        {
          "internalType": "address",
          "name": "to",
          "type": "address"
        },
        {
          "internalType": "uint256",
          "name": "tokenId",
          "type": "uint256"
        }
      ],
      "name": "safeTransferFrom",
      "outputs": [],
      "stateMutability": "nonpayable",
      "type": "function"
    },
    {
      "inputs": [
        {
          "internalType": "address",
          "name": "from",
          "type": "address"
        },
        {
          "internalType": "address",
          "name": "to",
          "type": "address"
        },
        {
          "internalType": "uint256",
          "name": "tokenId",
          "type": "uint256"
        },
        {
          "internalType": "bytes",
          "name": "data",
          "type": "bytes"
        }
      ],
      "name": "safeTransferFrom",
      "outputs": [],
      "stateMutability": "nonpayable",
      "type": "function"
    },
    {
      "inputs": [
        {
          "internalType": "address",
          "name": "operator",
          "type": "address"
        },
        {
          "internalType": "bool",
          "name": "approved",
          "type": "bool"
        }
      ],
      "name": "setApprovalForAll",
      "outputs": [],
      "stateMutability": "nonpayable",
      "type": "function"
    },
    {
      "inputs": [
        {
          "internalType": "bytes4",
          "name": "interfaceId",
          "type": "bytes4"
        }
      ],
      "name": "supportsInterface",
      "outputs": [
        {
          "internalType": "bool",
          "name": "",
          "type": "bool"
        }
      ],
      "stateMutability": "view",
      "type": "function"
    },
    {
      "inputs": [],
      "name": "symbol",
      "outputs": [
        {
          "internalType": "string",
          "name": "",
          "type": "string"
        }
      ],
      "stateMutability": "view",
      "type": "function"
    },
    {
      "inputs": [],
      "name": "tokenCount",
      "outputs": [
        {
          "internalType": "uint256",
          "name": "",
          "type": "uint256"
        }
      ],
      "stateMutability": "view",
      "type": "function"
    },
    {
      "inputs": [
        {
          "internalType": "uint256",
          "name": "_tokenId",
          "type": "uint256"
        }
      ],
      "name": "tokenURI",
      "outputs": [
        {
          "internalType": "string",
          "name": "",
          "type": "string"
        }
      ],
      "stateMutability": "view",
      "type": "function"
    },
    {
      "inputs": [
        {
          "internalType": "address",
          "name": "from",
          "type": "address"
        },
        {
          "internalType": "address",
          "name": "to",
          "type": "address"
        },
        {
          "internalType": "uint256",
          "name": "tokenId",
          "type": "uint256"
        }
      ],
      "name": "transferFrom",
      "outputs": [],
      "stateMutability": "nonpayable",
      "type": "function"
    }
  ],
  "bytecode": "0x60806040523480156200001157600080fd5b50604051620030b8380380620030b88339818101604052810190620000379190620001ff565b8282816000908051906020019062000051929190620000c6565b5080600190805190602001906200006a929190620000c6565b50505060016006819055508060078190555033600860006101000a81548173ffffffffffffffffffffffffffffffffffffffff021916908373ffffffffffffffffffffffffffffffffffffffff1602179055505050506200041b565b828054620000d49062000326565b90600052602060002090601f016020900481019282620000f8576000855562000144565b82601f106200011357805160ff191683800117855562000144565b8280016001018555821562000144579182015b828111156200014357825182559160200191906001019062000126565b5b50905062000153919062000157565b5090565b5b808211156200017257600081600090555060010162000158565b5090565b60006200018d6200018784620002b0565b62000287565b905082815260208101848484011115620001a657600080fd5b620001b3848285620002f0565b509392505050565b600082601f830112620001cd57600080fd5b8151620001df84826020860162000176565b91505092915050565b600081519050620001f98162000401565b92915050565b6000806000606084860312156200021557600080fd5b600084015167ffffffffffffffff8111156200023057600080fd5b6200023e86828701620001bb565b935050602084015167ffffffffffffffff8111156200025c57600080fd5b6200026a86828701620001bb565b92505060406200027d86828701620001e8565b9150509250925092565b600062000293620002a6565b9050620002a182826200035c565b919050565b6000604051905090565b600067ffffffffffffffff821115620002ce57620002cd620003c1565b5b620002d982620003f0565b9050602081019050919050565b6000819050919050565b60005b8381101562000310578082015181840152602081019050620002f3565b8381111562000320576000848401525b50505050565b600060028204905060018216806200033f57607f821691505b6020821081141562000356576200035562000392565b5b50919050565b6200036782620003f0565b810181811067ffffffffffffffff82111715620003895762000388620003c1565b5b80604052505050565b7f4e487b7100000000000000000000000000000000000000000000000000000000600052602260045260246000fd5b7f4e487b7100000000000000000000000000000000000000000000000000000000600052604160045260246000fd5b6000601f19601f8301169050919050565b6200040c81620002e6565b81146200041857600080fd5b50565b612c8d806200042b6000396000f3fe6080604052600436106101095760003560e01c806370a0823111610095578063a22cb46511610064578063a22cb46514610391578063b88d4fde146103ba578063c87b56dd146103e3578063d85d3d2714610420578063e985e9c51461043c57610109565b806370a08231146102d35780638da5cb5b1461031057806395d89b411461033b5780639f181b5e1461036657610109565b806313966db5116100dc57806313966db5146101dc5780631d089e511461020757806323b872dd1461024457806342842e0e1461026d5780636352211e1461029657610109565b806301ffc9a71461010e57806306fdde031461014b578063081812fc14610176578063095ea7b3146101b3575b600080fd5b34801561011a57600080fd5b5061013560048036038101906101309190611f5a565b610479565b6040516101429190612306565b60405180910390f35b34801561015757600080fd5b5061016061055b565b60405161016d9190612321565b60405180910390f35b34801561018257600080fd5b5061019d60048036038101906101989190611fed565b6105ed565b6040516101aa919061229f565b60405180910390f35b3480156101bf57600080fd5b506101da60048036038101906101d59190611f1e565b610633565b005b3480156101e857600080fd5b506101f161074b565b6040516101fe9190612503565b60405180910390f35b34801561021357600080fd5b5061022e60048036038101906102299190611fac565b610751565b60405161023b9190612306565b60405180910390f35b34801561025057600080fd5b5061026b60048036038101906102669190611e18565b610776565b005b34801561027957600080fd5b50610294600480360381019061028f9190611e18565b6107d6565b005b3480156102a257600080fd5b506102bd60048036038101906102b89190611fed565b6107f6565b6040516102ca919061229f565b60405180910390f35b3480156102df57600080fd5b506102fa60048036038101906102f59190611db3565b61087d565b6040516103079190612503565b60405180910390f35b34801561031c57600080fd5b50610325610935565b604051610332919061229f565b60405180910390f35b34801561034757600080fd5b5061035061095b565b60405161035d9190612321565b60405180910390f35b34801561037257600080fd5b5061037b6109ed565b6040516103889190612503565b60405180910390f35b34801561039d57600080fd5b506103b860048036038101906103b39190611ee2565b6109f3565b005b3480156103c657600080fd5b506103e160048036038101906103dc9190611e67565b610a09565b005b3480156103ef57600080fd5b5061040a60048036038101906104059190611fed565b610a6b565b6040516104179190612321565b60405180910390f35b61043a60048036038101906104359190611fac565b610b58565b005b34801561044857600080fd5b50610463600480360381019061045e9190611ddc565b610cab565b6040516104709190612306565b60405180910390f35b60007f80ac58cd000000000000000000000000000000000000000000000000000000007bffffffffffffffffffffffffffffffffffffffffffffffffffffffff1916827bffffffffffffffffffffffffffffffffffffffffffffffffffffffff1916148061054457507f5b5e139f000000000000000000000000000000000000000000000000000000007bffffffffffffffffffffffffffffffffffffffffffffffffffffffff1916827bffffffffffffffffffffffffffffffffffffffffffffffffffffffff1916145b80610554575061055382610d3f565b5b9050919050565b60606000805461056a9061271d565b80601f01602080910402602001604051908101604052809291908181526020018280546105969061271d565b80156105e35780601f106105b8576101008083540402835291602001916105e3565b820191906000526020600020905b8154815290600101906020018083116105c657829003601f168201915b5050505050905090565b60006105f882610da9565b6004600083815260200190815260200160002060009054906101000a900473ffffffffffffffffffffffffffffffffffffffff169050919050565b600061063e826107f6565b90508073ffffffffffffffffffffffffffffffffffffffff168373ffffffffffffffffffffffffffffffffffffffff1614156106af576040517f08c379a00000000000000000000000000000000000000000000000000000000081526004016106a6906124a3565b60405180910390fd5b8073ffffffffffffffffffffffffffffffffffffffff166106ce610df4565b73ffffffffffffffffffffffffffffffffffffffff1614806106fd57506106fc816106f7610df4565b610cab565b5b61073c576040517f08c379a0000000000000000000000000000000000000000000000000000000008152600401610733906124e3565b60405180910390fd5b6107468383610dfc565b505050565b60075481565b60008082905060008151111561076b576000915050610771565b60019150505b919050565b610787610781610df4565b82610eb5565b6107c6576040517f08c379a00000000000000000000000000000000000000000000000000000000081526004016107bd90612343565b60405180910390fd5b6107d1838383610f4a565b505050565b6107f183838360405180602001604052806000815250610a09565b505050565b60008061080283611244565b9050600073ffffffffffffffffffffffffffffffffffffffff168173ffffffffffffffffffffffffffffffffffffffff161415610874576040517f08c379a000000000000000000000000000000000000000000000000000000000815260040161086b90612483565b60405180910390fd5b80915050919050565b60008073ffffffffffffffffffffffffffffffffffffffff168273ffffffffffffffffffffffffffffffffffffffff1614156108ee576040517f08c379a00000000000000000000000000000000000000000000000000000000081526004016108e590612443565b60405180910390fd5b600360008373ffffffffffffffffffffffffffffffffffffffff1673ffffffffffffffffffffffffffffffffffffffff168152602001908152602001600020549050919050565b600860009054906101000a900473ffffffffffffffffffffffffffffffffffffffff1681565b60606001805461096a9061271d565b80601f01602080910402602001604051908101604052809291908181526020018280546109969061271d565b80156109e35780601f106109b8576101008083540402835291602001916109e3565b820191906000526020600020905b8154815290600101906020018083116109c657829003601f168201915b5050505050905090565b60065481565b610a056109fe610df4565b8383611281565b5050565b610a1a610a14610df4565b83610eb5565b610a59576040517f08c379a0000000000000000000000000000000000000000000000000000000008152600401610a5090612343565b60405180910390fd5b610a65848484846113ee565b50505050565b6060610a768261144a565b610ab5576040517f08c379a0000000000000000000000000000000000000000000000000000000008152600401610aac906123e3565b60405180910390fd5b600960008381526020019081526020016000208054610ad39061271d565b80601f0160208091040260200160405190810160405280929190818152602001828054610aff9061271d565b8015610b4c5780601f10610b2157610100808354040283529160200191610b4c565b820191906000526020600020905b815481529060010190602001808311610b2f57829003601f168201915b50505050509050919050565b610b6181610751565b15610ba1576040517f08c379a0000000000000000000000000000000000000000000000000000000008152600401610b9890612363565b60405180910390fd5b610bac60075461148b565b600754341015610bf1576040517f08c379a0000000000000000000000000000000000000000000000000000000008152600401610be8906124c3565b60405180910390fd5b610bfd33600654611524565b610c0960065482611542565b60066000815480929190610c1c90612780565b9190505550610c5f6040518060400160405280600881526020017f6d696e74206665650000000000000000000000000000000000000000000000008152506115b6565b610c6a60075461148b565b610ca86040518060400160405280601381526020017f4e4654206d696e74207375636365737366756c000000000000000000000000008152506115b6565b50565b6000600560008473ffffffffffffffffffffffffffffffffffffffff1673ffffffffffffffffffffffffffffffffffffffff16815260200190815260200160002060008373ffffffffffffffffffffffffffffffffffffffff1673ffffffffffffffffffffffffffffffffffffffff16815260200190815260200160002060009054906101000a900460ff16905092915050565b60007f01ffc9a7000000000000000000000000000000000000000000000000000000007bffffffffffffffffffffffffffffffffffffffffffffffffffffffff1916827bffffffffffffffffffffffffffffffffffffffffffffffffffffffff1916149050919050565b610db28161144a565b610df1576040517f08c379a0000000000000000000000000000000000000000000000000000000008152600401610de890612483565b60405180910390fd5b50565b600033905090565b816004600083815260200190815260200160002060006101000a81548173ffffffffffffffffffffffffffffffffffffffff021916908373ffffffffffffffffffffffffffffffffffffffff160217905550808273ffffffffffffffffffffffffffffffffffffffff16610e6f836107f6565b73ffffffffffffffffffffffffffffffffffffffff167f8c5be1e5ebec7d5bd14f71427d1e84f3dd0314c0f7b2291e5b200ac8c7c3b92560405160405180910390a45050565b600080610ec1836107f6565b90508073ffffffffffffffffffffffffffffffffffffffff168473ffffffffffffffffffffffffffffffffffffffff161480610f035750610f028185610cab565b5b80610f4157508373ffffffffffffffffffffffffffffffffffffffff16610f29846105ed565b73ffffffffffffffffffffffffffffffffffffffff16145b91505092915050565b8273ffffffffffffffffffffffffffffffffffffffff16610f6a826107f6565b73ffffffffffffffffffffffffffffffffffffffff1614610fc0576040517f08c379a0000000000000000000000000000000000000000000000000000000008152600401610fb7906123a3565b60405180910390fd5b600073ffffffffffffffffffffffffffffffffffffffff168273ffffffffffffffffffffffffffffffffffffffff161415611030576040517f08c379a000000000000000000000000000000000000000000000000000000000815260040161102790612403565b60405180910390fd5b61103d838383600161164f565b8273ffffffffffffffffffffffffffffffffffffffff1661105d826107f6565b73ffffffffffffffffffffffffffffffffffffffff16146110b3576040517f08c379a00000000000000000000000000000000000000000000000000000000081526004016110aa906123a3565b60405180910390fd5b6004600082815260200190815260200160002060006101000a81549073ffffffffffffffffffffffffffffffffffffffff02191690556001600360008573ffffffffffffffffffffffffffffffffffffffff1673ffffffffffffffffffffffffffffffffffffffff168152602001908152602001600020600082825403925050819055506001600360008473ffffffffffffffffffffffffffffffffffffffff1673ffffffffffffffffffffffffffffffffffffffff16815260200190815260200160002060008282540192505081905550816002600083815260200190815260200160002060006101000a81548173ffffffffffffffffffffffffffffffffffffffff021916908373ffffffffffffffffffffffffffffffffffffffff160217905550808273ffffffffffffffffffffffffffffffffffffffff168473ffffffffffffffffffffffffffffffffffffffff167fddf252ad1be2c89b69c2b068fc378daa952ba7f163c4a11628f55a4df523b3ef60405160405180910390a461123f8383836001611775565b505050565b60006002600083815260200190815260200160002060009054906101000a900473ffffffffffffffffffffffffffffffffffffffff169050919050565b8173ffffffffffffffffffffffffffffffffffffffff168373ffffffffffffffffffffffffffffffffffffffff1614156112f0576040517f08c379a00000000000000000000000000000000000000000000000000000000081526004016112e790612423565b60405180910390fd5b80600560008573ffffffffffffffffffffffffffffffffffffffff1673ffffffffffffffffffffffffffffffffffffffff16815260200190815260200160002060008473ffffffffffffffffffffffffffffffffffffffff1673ffffffffffffffffffffffffffffffffffffffff16815260200190815260200160002060006101000a81548160ff0219169083151502179055508173ffffffffffffffffffffffffffffffffffffffff168373ffffffffffffffffffffffffffffffffffffffff167f17307eab39ab6107e8899845ad3d59bd9653f200f220920489ca2b5937696c31836040516113e19190612306565b60405180910390a3505050565b6113f9848484610f4a565b6114058484848461177b565b611444576040517f08c379a000000000000000000000000000000000000000000000000000000000815260040161143b90612383565b60405180910390fd5b50505050565b60008073ffffffffffffffffffffffffffffffffffffffff1661146c83611244565b73ffffffffffffffffffffffffffffffffffffffff1614159050919050565b6115218160405160240161149f9190612503565b6040516020818303038152906040527ff82c50f1000000000000000000000000000000000000000000000000000000007bffffffffffffffffffffffffffffffffffffffffffffffffffffffff19166020820180517bffffffffffffffffffffffffffffffffffffffffffffffffffffffff8381831617835250505050611912565b50565b61153e82826040518060200160405280600081525061193b565b5050565b61154b8261144a565b61158a576040517f08c379a0000000000000000000000000000000000000000000000000000000008152600401611581906123e3565b60405180910390fd5b806009600084815260200190815260200160002090805190602001906115b1929190611bd7565b505050565b61164c816040516024016115ca9190612321565b6040516020818303038152906040527f41304fac000000000000000000000000000000000000000000000000000000007bffffffffffffffffffffffffffffffffffffffffffffffffffffffff19166020820180517bffffffffffffffffffffffffffffffffffffffffffffffffffffffff8381831617835250505050611912565b50565b600181111561176f57600073ffffffffffffffffffffffffffffffffffffffff168473ffffffffffffffffffffffffffffffffffffffff16146116e35780600360008673ffffffffffffffffffffffffffffffffffffffff1673ffffffffffffffffffffffffffffffffffffffff16815260200190815260200160002060008282546116db9190612633565b925050819055505b600073ffffffffffffffffffffffffffffffffffffffff168373ffffffffffffffffffffffffffffffffffffffff161461176e5780600360008573ffffffffffffffffffffffffffffffffffffffff1673ffffffffffffffffffffffffffffffffffffffff168152602001908152602001600020600082825461176691906125dd565b925050819055505b5b50505050565b50505050565b600061179c8473ffffffffffffffffffffffffffffffffffffffff16611996565b15611905578373ffffffffffffffffffffffffffffffffffffffff1663150b7a026117c5610df4565b8786866040518563ffffffff1660e01b81526004016117e794939291906122ba565b602060405180830381600087803b15801561180157600080fd5b505af192505050801561183257506040513d601f19601f8201168201806040525081019061182f9190611f83565b60015b6118b5573d8060008114611862576040519150601f19603f3d011682016040523d82523d6000602084013e611867565b606091505b506000815114156118ad576040517f08c379a00000000000000000000000000000000000000000000000000000000081526004016118a490612383565b60405180910390fd5b805181602001fd5b63150b7a0260e01b7bffffffffffffffffffffffffffffffffffffffffffffffffffffffff1916817bffffffffffffffffffffffffffffffffffffffffffffffffffffffff19161491505061190a565b600190505b949350505050565b60008151905060006a636f6e736f6c652e6c6f679050602083016000808483855afa5050505050565b61194583836119b9565b611952600084848461177b565b611991576040517f08c379a000000000000000000000000000000000000000000000000000000000815260040161198890612383565b60405180910390fd5b505050565b6000808273ffffffffffffffffffffffffffffffffffffffff163b119050919050565b600073ffffffffffffffffffffffffffffffffffffffff168273ffffffffffffffffffffffffffffffffffffffff161415611a29576040517f08c379a0000000000000000000000000000000000000000000000000000000008152600401611a2090612463565b60405180910390fd5b611a328161144a565b15611a72576040517f08c379a0000000000000000000000000000000000000000000000000000000008152600401611a69906123c3565b60405180910390fd5b611a8060008383600161164f565b611a898161144a565b15611ac9576040517f08c379a0000000000000000000000000000000000000000000000000000000008152600401611ac0906123c3565b60405180910390fd5b6001600360008473ffffffffffffffffffffffffffffffffffffffff1673ffffffffffffffffffffffffffffffffffffffff16815260200190815260200160002060008282540192505081905550816002600083815260200190815260200160002060006101000a81548173ffffffffffffffffffffffffffffffffffffffff021916908373ffffffffffffffffffffffffffffffffffffffff160217905550808273ffffffffffffffffffffffffffffffffffffffff16600073ffffffffffffffffffffffffffffffffffffffff167fddf252ad1be2c89b69c2b068fc378daa952ba7f163c4a11628f55a4df523b3ef60405160405180910390a4611bd3600083836001611775565b5050565b828054611be39061271d565b90600052602060002090601f016020900481019282611c055760008555611c4c565b82601f10611c1e57805160ff1916838001178555611c4c565b82800160010185558215611c4c579182015b82811115611c4b578251825591602001919060010190611c30565b5b509050611c599190611c5d565b5090565b5b80821115611c76576000816000905550600101611c5e565b5090565b6000611c8d611c8884612543565b61251e565b905082815260208101848484011115611ca557600080fd5b611cb08482856126db565b509392505050565b6000611ccb611cc684612574565b61251e565b905082815260208101848484011115611ce357600080fd5b611cee8482856126db565b509392505050565b600081359050611d0581612bfb565b92915050565b600081359050611d1a81612c12565b92915050565b600081359050611d2f81612c29565b92915050565b600081519050611d4481612c29565b92915050565b600082601f830112611d5b57600080fd5b8135611d6b848260208601611c7a565b91505092915050565b600082601f830112611d8557600080fd5b8135611d95848260208601611cb8565b91505092915050565b600081359050611dad81612c40565b92915050565b600060208284031215611dc557600080fd5b6000611dd384828501611cf6565b91505092915050565b60008060408385031215611def57600080fd5b6000611dfd85828601611cf6565b9250506020611e0e85828601611cf6565b9150509250929050565b600080600060608486031215611e2d57600080fd5b6000611e3b86828701611cf6565b9350506020611e4c86828701611cf6565b9250506040611e5d86828701611d9e565b9150509250925092565b60008060008060808587031215611e7d57600080fd5b6000611e8b87828801611cf6565b9450506020611e9c87828801611cf6565b9350506040611ead87828801611d9e565b925050606085013567ffffffffffffffff811115611eca57600080fd5b611ed687828801611d4a565b91505092959194509250565b60008060408385031215611ef557600080fd5b6000611f0385828601611cf6565b9250506020611f1485828601611d0b565b9150509250929050565b60008060408385031215611f3157600080fd5b6000611f3f85828601611cf6565b9250506020611f5085828601611d9e565b9150509250929050565b600060208284031215611f6c57600080fd5b6000611f7a84828501611d20565b91505092915050565b600060208284031215611f9557600080fd5b6000611fa384828501611d35565b91505092915050565b600060208284031215611fbe57600080fd5b600082013567ffffffffffffffff811115611fd857600080fd5b611fe484828501611d74565b91505092915050565b600060208284031215611fff57600080fd5b600061200d84828501611d9e565b91505092915050565b61201f81612667565b82525050565b61202e81612679565b82525050565b600061203f826125a5565b61204981856125bb565b93506120598185602086016126ea565b61206281612856565b840191505092915050565b6000612078826125b0565b61208281856125cc565b93506120928185602086016126ea565b61209b81612856565b840191505092915050565b60006120b3602d836125cc565b91506120be82612867565b604082019050919050565b60006120d66022836125cc565b91506120e1826128b6565b604082019050919050565b60006120f96032836125cc565b915061210482612905565b604082019050919050565b600061211c6025836125cc565b915061212782612954565b604082019050919050565b600061213f601c836125cc565b915061214a826129a3565b602082019050919050565b60006121626034836125cc565b915061216d826129cc565b604082019050919050565b60006121856024836125cc565b915061219082612a1b565b604082019050919050565b60006121a86019836125cc565b91506121b382612a6a565b602082019050919050565b60006121cb6029836125cc565b91506121d682612a93565b604082019050919050565b60006121ee6020836125cc565b91506121f982612ae2565b602082019050919050565b60006122116018836125cc565b915061221c82612b0b565b602082019050919050565b60006122346021836125cc565b915061223f82612b34565b604082019050919050565b60006122576013836125cc565b915061226282612b83565b602082019050919050565b600061227a603d836125cc565b915061228582612bac565b604082019050919050565b612299816126d1565b82525050565b60006020820190506122b46000830184612016565b92915050565b60006080820190506122cf6000830187612016565b6122dc6020830186612016565b6122e96040830185612290565b81810360608301526122fb8184612034565b905095945050505050565b600060208201905061231b6000830184612025565b92915050565b6000602082019050818103600083015261233b818461206d565b905092915050565b6000602082019050818103600083015261235c816120a6565b9050919050565b6000602082019050818103600083015261237c816120c9565b9050919050565b6000602082019050818103600083015261239c816120ec565b9050919050565b600060208201905081810360008301526123bc8161210f565b9050919050565b600060208201905081810360008301526123dc81612132565b9050919050565b600060208201905081810360008301526123fc81612155565b9050919050565b6000602082019050818103600083015261241c81612178565b9050919050565b6000602082019050818103600083015261243c8161219b565b9050919050565b6000602082019050818103600083015261245c816121be565b9050919050565b6000602082019050818103600083015261247c816121e1565b9050919050565b6000602082019050818103600083015261249c81612204565b9050919050565b600060208201905081810360008301526124bc81612227565b9050919050565b600060208201905081810360008301526124dc8161224a565b9050919050565b600060208201905081810360008301526124fc8161226d565b9050919050565b60006020820190506125186000830184612290565b92915050565b6000612528612539565b9050612534828261274f565b919050565b6000604051905090565b600067ffffffffffffffff82111561255e5761255d612827565b5b61256782612856565b9050602081019050919050565b600067ffffffffffffffff82111561258f5761258e612827565b5b61259882612856565b9050602081019050919050565b600081519050919050565b600081519050919050565b600082825260208201905092915050565b600082825260208201905092915050565b60006125e8826126d1565b91506125f3836126d1565b9250827fffffffffffffffffffffffffffffffffffffffffffffffffffffffffffffffff03821115612628576126276127c9565b5b828201905092915050565b600061263e826126d1565b9150612649836126d1565b92508282101561265c5761265b6127c9565b5b828203905092915050565b6000612672826126b1565b9050919050565b60008115159050919050565b60007fffffffff0000000000000000000000000000000000000000000000000000000082169050919050565b600073ffffffffffffffffffffffffffffffffffffffff82169050919050565b6000819050919050565b82818337600083830152505050565b60005b838110156127085780820151818401526020810190506126ed565b83811115612717576000848401525b50505050565b6000600282049050600182168061273557607f821691505b60208210811415612749576127486127f8565b5b50919050565b61275882612856565b810181811067ffffffffffffffff8211171561277757612776612827565b5b80604052505050565b600061278b826126d1565b91507fffffffffffffffffffffffffffffffffffffffffffffffffffffffffffffffff8214156127be576127bd6127c9565b5b600182019050919050565b7f4e487b7100000000000000000000000000000000000000000000000000000000600052601160045260246000fd5b7f4e487b7100000000000000000000000000000000000000000000000000000000600052602260045260246000fd5b7f4e487b7100000000000000000000000000000000000000000000000000000000600052604160045260246000fd5b6000601f19601f8301169050919050565b7f4552433732313a2063616c6c6572206973206e6f7420746f6b656e206f776e6560008201527f72206f7220617070726f76656400000000000000000000000000000000000000602082015250565b7f596f75206d7573742070726f7669646520612076616c696420546f6b656e205560008201527f5249000000000000000000000000000000000000000000000000000000000000602082015250565b7f4552433732313a207472616e7366657220746f206e6f6e20455243373231526560008201527f63656976657220696d706c656d656e7465720000000000000000000000000000602082015250565b7f4552433732313a207472616e736665722066726f6d20696e636f72726563742060008201527f6f776e6572000000000000000000000000000000000000000000000000000000602082015250565b7f4552433732313a20746f6b656e20616c7265616479206d696e74656400000000600082015250565b7f4552433732314d657461646174613a205552492073657420746f206120746f6b60008201527f656e207468617420646f65736e74206578697374000000000000000000000000602082015250565b7f4552433732313a207472616e7366657220746f20746865207a65726f2061646460008201527f7265737300000000000000000000000000000000000000000000000000000000602082015250565b7f4552433732313a20617070726f766520746f2063616c6c657200000000000000600082015250565b7f4552433732313a2061646472657373207a65726f206973206e6f74206120766160008201527f6c6964206f776e65720000000000000000000000000000000000000000000000602082015250565b7f4552433732313a206d696e7420746f20746865207a65726f2061646472657373600082015250565b7f4552433732313a20696e76616c696420746f6b656e2049440000000000000000600082015250565b7f4552433732313a20617070726f76616c20746f2063757272656e74206f776e6560008201527f7200000000000000000000000000000000000000000000000000000000000000602082015250565b7f596f75206d757374207370656e64206d6f726500000000000000000000000000600082015250565b7f4552433732313a20617070726f76652063616c6c6572206973206e6f7420746f60008201527f6b656e206f776e6572206f7220617070726f76656420666f7220616c6c000000602082015250565b612c0481612667565b8114612c0f57600080fd5b50565b612c1b81612679565b8114612c2657600080fd5b50565b612c3281612685565b8114612c3d57600080fd5b50565b612c49816126d1565b8114612c5457600080fd5b5056fea2646970667358221220c9305e2d82ce8a78b271151d9f6e9992f64951985f2e78ded1c4d5767bba393764736f6c63430008040033",
  "linkReferences": {},
  "deployedLinkReferences": {}
}