{
  "_format": "hh-sol-artifact-1",
  "contractName": "Art",
  "sourceName": "contracts/Art.sol",
  "abi": [
    {
      "inputs": [
        {
          "internalType": "string",
          "name": "name",
          "type": "string"
        },
        {
          "internalType": "string",
          "name": "symbol",
          "type": "string"
        },
        {
          "internalType": "uint256",
          "name": "fee",
          "type": "uint256"
        }
      ],
      "stateMutability": "nonpayable",
      "type": "constructor"
    },
    {
      "anonymous": false,
      "inputs": [
        {
          "indexed": true,
          "internalType": "address",
          "name": "owner",
          "type": "address"
        },
        {
          "indexed": true,
          "internalType": "address",
          "name": "approved",
          "type": "address"
        },
        {
          "indexed": true,
          "internalType": "uint256",
          "name": "tokenId",
          "type": "uint256"
        }
      ],
      "name": "Approval",
      "type": "event"
    },
    {
      "anonymous": false,
      "inputs": [
        {
          "indexed": true,
          "internalType": "address",
          "name": "owner",
          "type": "address"
        },
        {
          "indexed": true,
          "internalType": "address",
          "name": "operator",
          "type": "address"
        },
        {
          "indexed": false,
          "internalType": "bool",
          "name": "approved",
          "type": "bool"
        }
      ],
      "name": "ApprovalForAll",
      "type": "event"
    },
    {
      "anonymous": false,
      "inputs": [
        {
          "indexed": true,
          "internalType": "address",
          "name": "from",
          "type": "address"
        },
        {
          "indexed": true,
          "internalType": "address",
          "name": "to",
          "type": "address"
        },
        {
          "indexed": true,
          "internalType": "uint256",
          "name": "tokenId",
          "type": "uint256"
        }
      ],
      "name": "Transfer",
      "type": "event"
    },
    {
      "inputs": [
        {
          "internalType": "address",
          "name": "to",
          "type": "address"
        },
        {
          "internalType": "uint256",
          "name": "tokenId",
          "type": "uint256"
        }
      ],
      "name": "approve",
      "outputs": [],
      "stateMutability": "nonpayable",
      "type": "function"
    },
    {
      "inputs": [
        {
          "internalType": "address",
          "name": "owner",
          "type": "address"
        }
      ],
      "name": "balanceOf",
      "outputs": [
        {
          "internalType": "uint256",
          "name": "",
          "type": "uint256"
        }
      ],
      "stateMutability": "view",
      "type": "function"
    },
    {
      "inputs": [
        {
          "internalType": "uint256",
          "name": "tokenId",
          "type": "uint256"
        }
      ],
      "name": "getApproved",
      "outputs": [
        {
          "internalType": "address",
          "name": "",
          "type": "address"
        }
      ],
      "stateMutability": "view",
      "type": "function"
    },
    {
      "inputs": [
        {
          "internalType": "address",
          "name": "owner",
          "type": "address"
        },
        {
          "internalType": "address",
          "name": "operator",
          "type": "address"
        }
      ],
      "name": "isApprovedForAll",
      "outputs": [
        {
          "internalType": "bool",
          "name": "",
          "type": "bool"
        }
      ],
      "stateMutability": "view",
      "type": "function"
    },
    {
      "inputs": [
        {
          "internalType": "string",
          "name": "_test",
          "type": "string"
        }
      ],
      "name": "isTokenURIEmpty",
      "outputs": [
        {
          "internalType": "bool",
          "name": "",
          "type": "bool"
        }
      ],
      "stateMutability": "pure",
      "type": "function"
    },
    {
      "inputs": [
        {
          "internalType": "string",
          "name": "_tokenURI",
          "type": "string"
        },
        {
          "internalType": "bool",
          "name": "isDrip",
          "type": "bool"
        }
      ],
      "name": "mint",
      "outputs": [],
      "stateMutability": "payable",
      "type": "function"
    },
    {
      "inputs": [],
      "name": "mintFee",
      "outputs": [
        {
          "internalType": "uint256",
          "name": "",
          "type": "uint256"
        }
      ],
      "stateMutability": "view",
      "type": "function"
    },
    {
      "inputs": [],
      "name": "name",
      "outputs": [
        {
          "internalType": "string",
          "name": "",
          "type": "string"
        }
      ],
      "stateMutability": "view",
      "type": "function"
    },
    {
      "inputs": [],
      "name": "owner",
      "outputs": [
        {
          "internalType": "address",
          "name": "",
          "type": "address"
        }
      ],
      "stateMutability": "view",
      "type": "function"
    },
    {
      "inputs": [
        {
          "internalType": "uint256",
          "name": "tokenId",
          "type": "uint256"
        }
      ],
      "name": "ownerOf",
      "outputs": [
        {
          "internalType": "address",
          "name": "",
          "type": "address"
        }
      ],
      "stateMutability": "view",
      "type": "function"
    },
    {
      "inputs": [
        {
          "internalType": "address",
          "name": "from",
          "type": "address"
        },
        {
          "internalType": "address",
          "name": "to",
          "type": "address"
        },
        {
          "internalType": "uint256",
          "name": "tokenId",
          "type": "uint256"
        }
      ],
      "name": "safeTransferFrom",
      "outputs": [],
      "stateMutability": "nonpayable",
      "type": "function"
    },
    {
      "inputs": [
        {
          "internalType": "address",
          "name": "from",
          "type": "address"
        },
        {
          "internalType": "address",
          "name": "to",
          "type": "address"
        },
        {
          "internalType": "uint256",
          "name": "tokenId",
          "type": "uint256"
        },
        {
          "internalType": "bytes",
          "name": "data",
          "type": "bytes"
        }
      ],
      "name": "safeTransferFrom",
      "outputs": [],
      "stateMutability": "nonpayable",
      "type": "function"
    },
    {
      "inputs": [
        {
          "internalType": "address",
          "name": "operator",
          "type": "address"
        },
        {
          "internalType": "bool",
          "name": "approved",
          "type": "bool"
        }
      ],
      "name": "setApprovalForAll",
      "outputs": [],
      "stateMutability": "nonpayable",
      "type": "function"
    },
    {
      "inputs": [
        {
          "internalType": "uint256",
          "name": "fee",
          "type": "uint256"
        }
      ],
      "name": "setMintFee",
      "outputs": [
        {
          "internalType": "uint256",
          "name": "mintF",
          "type": "uint256"
        }
      ],
      "stateMutability": "nonpayable",
      "type": "function"
    },
    {
      "inputs": [
        {
          "internalType": "bytes4",
          "name": "interfaceId",
          "type": "bytes4"
        }
      ],
      "name": "supportsInterface",
      "outputs": [
        {
          "internalType": "bool",
          "name": "",
          "type": "bool"
        }
      ],
      "stateMutability": "view",
      "type": "function"
    },
    {
      "inputs": [],
      "name": "symbol",
      "outputs": [
        {
          "internalType": "string",
          "name": "",
          "type": "string"
        }
      ],
      "stateMutability": "view",
      "type": "function"
    },
    {
      "inputs": [],
      "name": "tokenCount",
      "outputs": [
        {
          "internalType": "uint256",
          "name": "",
          "type": "uint256"
        }
      ],
      "stateMutability": "view",
      "type": "function"
    },
    {
      "inputs": [
        {
          "internalType": "uint256",
          "name": "_tokenId",
          "type": "uint256"
        }
      ],
      "name": "tokenURI",
      "outputs": [
        {
          "internalType": "string",
          "name": "",
          "type": "string"
        }
      ],
      "stateMutability": "view",
      "type": "function"
    },
    {
      "inputs": [
        {
          "internalType": "address",
          "name": "from",
          "type": "address"
        },
        {
          "internalType": "address",
          "name": "to",
          "type": "address"
        },
        {
          "internalType": "uint256",
          "name": "tokenId",
          "type": "uint256"
        }
      ],
      "name": "transferFrom",
      "outputs": [],
      "stateMutability": "nonpayable",
      "type": "function"
    }
  ],
  "bytecode": "0x60806040523480156200001157600080fd5b5060405162003173380380620031738339818101604052810190620000379190620001ff565b8282816000908051906020019062000051929190620000c6565b5080600190805190602001906200006a929190620000c6565b50505060016006819055508060078190555033600860006101000a81548173ffffffffffffffffffffffffffffffffffffffff021916908373ffffffffffffffffffffffffffffffffffffffff1602179055505050506200041b565b828054620000d49062000326565b90600052602060002090601f016020900481019282620000f8576000855562000144565b82601f106200011357805160ff191683800117855562000144565b8280016001018555821562000144579182015b828111156200014357825182559160200191906001019062000126565b5b50905062000153919062000157565b5090565b5b808211156200017257600081600090555060010162000158565b5090565b60006200018d6200018784620002b0565b62000287565b905082815260208101848484011115620001a657600080fd5b620001b3848285620002f0565b509392505050565b600082601f830112620001cd57600080fd5b8151620001df84826020860162000176565b91505092915050565b600081519050620001f98162000401565b92915050565b6000806000606084860312156200021557600080fd5b600084015167ffffffffffffffff8111156200023057600080fd5b6200023e86828701620001bb565b935050602084015167ffffffffffffffff8111156200025c57600080fd5b6200026a86828701620001bb565b92505060406200027d86828701620001e8565b9150509250925092565b600062000293620002a6565b9050620002a182826200035c565b919050565b6000604051905090565b600067ffffffffffffffff821115620002ce57620002cd620003c1565b5b620002d982620003f0565b9050602081019050919050565b6000819050919050565b60005b8381101562000310578082015181840152602081019050620002f3565b8381111562000320576000848401525b50505050565b600060028204905060018216806200033f57607f821691505b6020821081141562000356576200035562000392565b5b50919050565b6200036782620003f0565b810181811067ffffffffffffffff82111715620003895762000388620003c1565b5b80604052505050565b7f4e487b7100000000000000000000000000000000000000000000000000000000600052602260045260246000fd5b7f4e487b7100000000000000000000000000000000000000000000000000000000600052604160045260246000fd5b6000601f19601f8301169050919050565b6200040c81620002e6565b81146200041857600080fd5b50565b612d48806200042b6000396000f3fe6080604052600436106101145760003560e01c80636352211e116100a0578063a22cb46511610064578063a22cb465146103b8578063b88d4fde146103e1578063c87b56dd1461040a578063e985e9c514610447578063eddd0d9c1461048457610114565b80636352211e146102bd57806370a08231146102fa5780638da5cb5b1461033757806395d89b41146103625780639f181b5e1461038d57610114565b806313966db5116100e757806313966db5146101e75780631d089e511461021257806323b872dd1461024f57806342842e0e146102785780635f257f29146102a157610114565b806301ffc9a71461011957806306fdde0314610156578063081812fc14610181578063095ea7b3146101be575b600080fd5b34801561012557600080fd5b50610140600480360381019061013b9190611fc1565b6104c1565b60405161014d91906123c1565b60405180910390f35b34801561016257600080fd5b5061016b6105a3565b60405161017891906123dc565b60405180910390f35b34801561018d57600080fd5b506101a860048036038101906101a391906120a8565b610635565b6040516101b5919061235a565b60405180910390f35b3480156101ca57600080fd5b506101e560048036038101906101e09190611f85565b61067b565b005b3480156101f357600080fd5b506101fc610793565b60405161020991906125be565b60405180910390f35b34801561021e57600080fd5b5061023960048036038101906102349190612013565b610799565b60405161024691906123c1565b60405180910390f35b34801561025b57600080fd5b5061027660048036038101906102719190611e7f565b6107be565b005b34801561028457600080fd5b5061029f600480360381019061029a9190611e7f565b61081e565b005b6102bb60048036038101906102b69190612054565b61083e565b005b3480156102c957600080fd5b506102e460048036038101906102df91906120a8565b61099d565b6040516102f1919061235a565b60405180910390f35b34801561030657600080fd5b50610321600480360381019061031c9190611e1a565b610a24565b60405161032e91906125be565b60405180910390f35b34801561034357600080fd5b5061034c610adc565b604051610359919061235a565b60405180910390f35b34801561036e57600080fd5b50610377610b02565b60405161038491906123dc565b60405180910390f35b34801561039957600080fd5b506103a2610b94565b6040516103af91906125be565b60405180910390f35b3480156103c457600080fd5b506103df60048036038101906103da9190611f49565b610b9a565b005b3480156103ed57600080fd5b5061040860048036038101906104039190611ece565b610bb0565b005b34801561041657600080fd5b50610431600480360381019061042c91906120a8565b610c12565b60405161043e91906123dc565b60405180910390f35b34801561045357600080fd5b5061046e60048036038101906104699190611e43565b610cff565b60405161047b91906123c1565b60405180910390f35b34801561049057600080fd5b506104ab60048036038101906104a691906120a8565b610d93565b6040516104b891906125be565b60405180910390f35b60007f80ac58cd000000000000000000000000000000000000000000000000000000007bffffffffffffffffffffffffffffffffffffffffffffffffffffffff1916827bffffffffffffffffffffffffffffffffffffffffffffffffffffffff1916148061058c57507f5b5e139f000000000000000000000000000000000000000000000000000000007bffffffffffffffffffffffffffffffffffffffffffffffffffffffff1916827bffffffffffffffffffffffffffffffffffffffffffffffffffffffff1916145b8061059c575061059b82610da6565b5b9050919050565b6060600080546105b2906127d8565b80601f01602080910402602001604051908101604052809291908181526020018280546105de906127d8565b801561062b5780601f106106005761010080835404028352916020019161062b565b820191906000526020600020905b81548152906001019060200180831161060e57829003601f168201915b5050505050905090565b600061064082610e10565b6004600083815260200190815260200160002060009054906101000a900473ffffffffffffffffffffffffffffffffffffffff169050919050565b60006106868261099d565b90508073ffffffffffffffffffffffffffffffffffffffff168373ffffffffffffffffffffffffffffffffffffffff1614156106f7576040517f08c379a00000000000000000000000000000000000000000000000000000000081526004016106ee9061255e565b60405180910390fd5b8073ffffffffffffffffffffffffffffffffffffffff16610716610e5b565b73ffffffffffffffffffffffffffffffffffffffff16148061074557506107448161073f610e5b565b610cff565b5b610784576040517f08c379a000000000000000000000000000000000000000000000000000000000815260040161077b9061259e565b60405180910390fd5b61078e8383610e63565b505050565b60075481565b6000808290506000815111156107b35760009150506107b9565b60019150505b919050565b6107cf6107c9610e5b565b82610f1c565b61080e576040517f08c379a0000000000000000000000000000000000000000000000000000000008152600401610805906123fe565b60405180910390fd5b610819838383610fb1565b505050565b61083983838360405180602001604052806000815250610bb0565b505050565b61084782610799565b15610887576040517f08c379a000000000000000000000000000000000000000000000000000000000815260040161087e9061241e565b60405180910390fd5b6108926007546112ab565b6000905080156108e2576007543410156108e1576040517f08c379a00000000000000000000000000000000000000000000000000000000081526004016108d89061257e565b60405180910390fd5b5b6108ee33600654611344565b6108fa60065483611362565b6006600081548092919061090d9061283b565b91905055506109506040518060400160405280600881526020017f6d696e74206665650000000000000000000000000000000000000000000000008152506113d6565b61095b6007546112ab565b6109996040518060400160405280601381526020017f4e4654206d696e74207375636365737366756c000000000000000000000000008152506113d6565b5050565b6000806109a98361146f565b9050600073ffffffffffffffffffffffffffffffffffffffff168173ffffffffffffffffffffffffffffffffffffffff161415610a1b576040517f08c379a0000000000000000000000000000000000000000000000000000000008152600401610a129061253e565b60405180910390fd5b80915050919050565b60008073ffffffffffffffffffffffffffffffffffffffff168273ffffffffffffffffffffffffffffffffffffffff161415610a95576040517f08c379a0000000000000000000000000000000000000000000000000000000008152600401610a8c906124fe565b60405180910390fd5b600360008373ffffffffffffffffffffffffffffffffffffffff1673ffffffffffffffffffffffffffffffffffffffff168152602001908152602001600020549050919050565b600860009054906101000a900473ffffffffffffffffffffffffffffffffffffffff1681565b606060018054610b11906127d8565b80601f0160208091040260200160405190810160405280929190818152602001828054610b3d906127d8565b8015610b8a5780601f10610b5f57610100808354040283529160200191610b8a565b820191906000526020600020905b815481529060010190602001808311610b6d57829003601f168201915b5050505050905090565b60065481565b610bac610ba5610e5b565b83836114ac565b5050565b610bc1610bbb610e5b565b83610f1c565b610c00576040517f08c379a0000000000000000000000000000000000000000000000000000000008152600401610bf7906123fe565b60405180910390fd5b610c0c84848484611619565b50505050565b6060610c1d82611675565b610c5c576040517f08c379a0000000000000000000000000000000000000000000000000000000008152600401610c539061249e565b60405180910390fd5b600960008381526020019081526020016000208054610c7a906127d8565b80601f0160208091040260200160405190810160405280929190818152602001828054610ca6906127d8565b8015610cf35780601f10610cc857610100808354040283529160200191610cf3565b820191906000526020600020905b815481529060010190602001808311610cd657829003601f168201915b50505050509050919050565b6000600560008473ffffffffffffffffffffffffffffffffffffffff1673ffffffffffffffffffffffffffffffffffffffff16815260200190815260200160002060008373ffffffffffffffffffffffffffffffffffffffff1673ffffffffffffffffffffffffffffffffffffffff16815260200190815260200160002060009054906101000a900460ff16905092915050565b6000816007819055506007549050919050565b60007f01ffc9a7000000000000000000000000000000000000000000000000000000007bffffffffffffffffffffffffffffffffffffffffffffffffffffffff1916827bffffffffffffffffffffffffffffffffffffffffffffffffffffffff1916149050919050565b610e1981611675565b610e58576040517f08c379a0000000000000000000000000000000000000000000000000000000008152600401610e4f9061253e565b60405180910390fd5b50565b600033905090565b816004600083815260200190815260200160002060006101000a81548173ffffffffffffffffffffffffffffffffffffffff021916908373ffffffffffffffffffffffffffffffffffffffff160217905550808273ffffffffffffffffffffffffffffffffffffffff16610ed68361099d565b73ffffffffffffffffffffffffffffffffffffffff167f8c5be1e5ebec7d5bd14f71427d1e84f3dd0314c0f7b2291e5b200ac8c7c3b92560405160405180910390a45050565b600080610f288361099d565b90508073ffffffffffffffffffffffffffffffffffffffff168473ffffffffffffffffffffffffffffffffffffffff161480610f6a5750610f698185610cff565b5b80610fa857508373ffffffffffffffffffffffffffffffffffffffff16610f9084610635565b73ffffffffffffffffffffffffffffffffffffffff16145b91505092915050565b8273ffffffffffffffffffffffffffffffffffffffff16610fd18261099d565b73ffffffffffffffffffffffffffffffffffffffff1614611027576040517f08c379a000000000000000000000000000000000000000000000000000000000815260040161101e9061245e565b60405180910390fd5b600073ffffffffffffffffffffffffffffffffffffffff168273ffffffffffffffffffffffffffffffffffffffff161415611097576040517f08c379a000000000000000000000000000000000000000000000000000000000815260040161108e906124be565b60405180910390fd5b6110a483838360016116b6565b8273ffffffffffffffffffffffffffffffffffffffff166110c48261099d565b73ffffffffffffffffffffffffffffffffffffffff161461111a576040517f08c379a00000000000000000000000000000000000000000000000000000000081526004016111119061245e565b60405180910390fd5b6004600082815260200190815260200160002060006101000a81549073ffffffffffffffffffffffffffffffffffffffff02191690556001600360008573ffffffffffffffffffffffffffffffffffffffff1673ffffffffffffffffffffffffffffffffffffffff168152602001908152602001600020600082825403925050819055506001600360008473ffffffffffffffffffffffffffffffffffffffff1673ffffffffffffffffffffffffffffffffffffffff16815260200190815260200160002060008282540192505081905550816002600083815260200190815260200160002060006101000a81548173ffffffffffffffffffffffffffffffffffffffff021916908373ffffffffffffffffffffffffffffffffffffffff160217905550808273ffffffffffffffffffffffffffffffffffffffff168473ffffffffffffffffffffffffffffffffffffffff167fddf252ad1be2c89b69c2b068fc378daa952ba7f163c4a11628f55a4df523b3ef60405160405180910390a46112a683838360016117dc565b505050565b611341816040516024016112bf91906125be565b6040516020818303038152906040527ff82c50f1000000000000000000000000000000000000000000000000000000007bffffffffffffffffffffffffffffffffffffffffffffffffffffffff19166020820180517bffffffffffffffffffffffffffffffffffffffffffffffffffffffff83818316178352505050506117e2565b50565b61135e82826040518060200160405280600081525061180b565b5050565b61136b82611675565b6113aa576040517f08c379a00000000000000000000000000000000000000000000000000000000081526004016113a19061249e565b60405180910390fd5b806009600084815260200190815260200160002090805190602001906113d1929190611c3e565b505050565b61146c816040516024016113ea91906123dc565b6040516020818303038152906040527f41304fac000000000000000000000000000000000000000000000000000000007bffffffffffffffffffffffffffffffffffffffffffffffffffffffff19166020820180517bffffffffffffffffffffffffffffffffffffffffffffffffffffffff83818316178352505050506117e2565b50565b60006002600083815260200190815260200160002060009054906101000a900473ffffffffffffffffffffffffffffffffffffffff169050919050565b8173ffffffffffffffffffffffffffffffffffffffff168373ffffffffffffffffffffffffffffffffffffffff16141561151b576040517f08c379a0000000000000000000000000000000000000000000000000000000008152600401611512906124de565b60405180910390fd5b80600560008573ffffffffffffffffffffffffffffffffffffffff1673ffffffffffffffffffffffffffffffffffffffff16815260200190815260200160002060008473ffffffffffffffffffffffffffffffffffffffff1673ffffffffffffffffffffffffffffffffffffffff16815260200190815260200160002060006101000a81548160ff0219169083151502179055508173ffffffffffffffffffffffffffffffffffffffff168373ffffffffffffffffffffffffffffffffffffffff167f17307eab39ab6107e8899845ad3d59bd9653f200f220920489ca2b5937696c318360405161160c91906123c1565b60405180910390a3505050565b611624848484610fb1565b61163084848484611866565b61166f576040517f08c379a00000000000000000000000000000000000000000000000000000000081526004016116669061243e565b60405180910390fd5b50505050565b60008073ffffffffffffffffffffffffffffffffffffffff166116978361146f565b73ffffffffffffffffffffffffffffffffffffffff1614159050919050565b60018111156117d657600073ffffffffffffffffffffffffffffffffffffffff168473ffffffffffffffffffffffffffffffffffffffff161461174a5780600360008673ffffffffffffffffffffffffffffffffffffffff1673ffffffffffffffffffffffffffffffffffffffff168152602001908152602001600020600082825461174291906126ee565b925050819055505b600073ffffffffffffffffffffffffffffffffffffffff168373ffffffffffffffffffffffffffffffffffffffff16146117d55780600360008573ffffffffffffffffffffffffffffffffffffffff1673ffffffffffffffffffffffffffffffffffffffff16815260200190815260200160002060008282546117cd9190612698565b925050819055505b5b50505050565b50505050565b60008151905060006a636f6e736f6c652e6c6f679050602083016000808483855afa5050505050565b61181583836119fd565b6118226000848484611866565b611861576040517f08c379a00000000000000000000000000000000000000000000000000000000081526004016118589061243e565b60405180910390fd5b505050565b60006118878473ffffffffffffffffffffffffffffffffffffffff16611c1b565b156119f0578373ffffffffffffffffffffffffffffffffffffffff1663150b7a026118b0610e5b565b8786866040518563ffffffff1660e01b81526004016118d29493929190612375565b602060405180830381600087803b1580156118ec57600080fd5b505af192505050801561191d57506040513d601f19601f8201168201806040525081019061191a9190611fea565b60015b6119a0573d806000811461194d576040519150601f19603f3d011682016040523d82523d6000602084013e611952565b606091505b50600081511415611998576040517f08c379a000000000000000000000000000000000000000000000000000000000815260040161198f9061243e565b60405180910390fd5b805181602001fd5b63150b7a0260e01b7bffffffffffffffffffffffffffffffffffffffffffffffffffffffff1916817bffffffffffffffffffffffffffffffffffffffffffffffffffffffff1916149150506119f5565b600190505b949350505050565b600073ffffffffffffffffffffffffffffffffffffffff168273ffffffffffffffffffffffffffffffffffffffff161415611a6d576040517f08c379a0000000000000000000000000000000000000000000000000000000008152600401611a649061251e565b60405180910390fd5b611a7681611675565b15611ab6576040517f08c379a0000000000000000000000000000000000000000000000000000000008152600401611aad9061247e565b60405180910390fd5b611ac46000838360016116b6565b611acd81611675565b15611b0d576040517f08c379a0000000000000000000000000000000000000000000000000000000008152600401611b049061247e565b60405180910390fd5b6001600360008473ffffffffffffffffffffffffffffffffffffffff1673ffffffffffffffffffffffffffffffffffffffff16815260200190815260200160002060008282540192505081905550816002600083815260200190815260200160002060006101000a81548173ffffffffffffffffffffffffffffffffffffffff021916908373ffffffffffffffffffffffffffffffffffffffff160217905550808273ffffffffffffffffffffffffffffffffffffffff16600073ffffffffffffffffffffffffffffffffffffffff167fddf252ad1be2c89b69c2b068fc378daa952ba7f163c4a11628f55a4df523b3ef60405160405180910390a4611c176000838360016117dc565b5050565b6000808273ffffffffffffffffffffffffffffffffffffffff163b119050919050565b828054611c4a906127d8565b90600052602060002090601f016020900481019282611c6c5760008555611cb3565b82601f10611c8557805160ff1916838001178555611cb3565b82800160010185558215611cb3579182015b82811115611cb2578251825591602001919060010190611c97565b5b509050611cc09190611cc4565b5090565b5b80821115611cdd576000816000905550600101611cc5565b5090565b6000611cf4611cef846125fe565b6125d9565b905082815260208101848484011115611d0c57600080fd5b611d17848285612796565b509392505050565b6000611d32611d2d8461262f565b6125d9565b905082815260208101848484011115611d4a57600080fd5b611d55848285612796565b509392505050565b600081359050611d6c81612cb6565b92915050565b600081359050611d8181612ccd565b92915050565b600081359050611d9681612ce4565b92915050565b600081519050611dab81612ce4565b92915050565b600082601f830112611dc257600080fd5b8135611dd2848260208601611ce1565b91505092915050565b600082601f830112611dec57600080fd5b8135611dfc848260208601611d1f565b91505092915050565b600081359050611e1481612cfb565b92915050565b600060208284031215611e2c57600080fd5b6000611e3a84828501611d5d565b91505092915050565b60008060408385031215611e5657600080fd5b6000611e6485828601611d5d565b9250506020611e7585828601611d5d565b9150509250929050565b600080600060608486031215611e9457600080fd5b6000611ea286828701611d5d565b9350506020611eb386828701611d5d565b9250506040611ec486828701611e05565b9150509250925092565b60008060008060808587031215611ee457600080fd5b6000611ef287828801611d5d565b9450506020611f0387828801611d5d565b9350506040611f1487828801611e05565b925050606085013567ffffffffffffffff811115611f3157600080fd5b611f3d87828801611db1565b91505092959194509250565b60008060408385031215611f5c57600080fd5b6000611f6a85828601611d5d565b9250506020611f7b85828601611d72565b9150509250929050565b60008060408385031215611f9857600080fd5b6000611fa685828601611d5d565b9250506020611fb785828601611e05565b9150509250929050565b600060208284031215611fd357600080fd5b6000611fe184828501611d87565b91505092915050565b600060208284031215611ffc57600080fd5b600061200a84828501611d9c565b91505092915050565b60006020828403121561202557600080fd5b600082013567ffffffffffffffff81111561203f57600080fd5b61204b84828501611ddb565b91505092915050565b6000806040838503121561206757600080fd5b600083013567ffffffffffffffff81111561208157600080fd5b61208d85828601611ddb565b925050602061209e85828601611d72565b9150509250929050565b6000602082840312156120ba57600080fd5b60006120c884828501611e05565b91505092915050565b6120da81612722565b82525050565b6120e981612734565b82525050565b60006120fa82612660565b6121048185612676565b93506121148185602086016127a5565b61211d81612911565b840191505092915050565b60006121338261266b565b61213d8185612687565b935061214d8185602086016127a5565b61215681612911565b840191505092915050565b600061216e602d83612687565b915061217982612922565b604082019050919050565b6000612191602283612687565b915061219c82612971565b604082019050919050565b60006121b4603283612687565b91506121bf826129c0565b604082019050919050565b60006121d7602583612687565b91506121e282612a0f565b604082019050919050565b60006121fa601c83612687565b915061220582612a5e565b602082019050919050565b600061221d603483612687565b915061222882612a87565b604082019050919050565b6000612240602483612687565b915061224b82612ad6565b604082019050919050565b6000612263601983612687565b915061226e82612b25565b602082019050919050565b6000612286602983612687565b915061229182612b4e565b604082019050919050565b60006122a9602083612687565b91506122b482612b9d565b602082019050919050565b60006122cc601883612687565b91506122d782612bc6565b602082019050919050565b60006122ef602183612687565b91506122fa82612bef565b604082019050919050565b6000612312601383612687565b915061231d82612c3e565b602082019050919050565b6000612335603d83612687565b915061234082612c67565b604082019050919050565b6123548161278c565b82525050565b600060208201905061236f60008301846120d1565b92915050565b600060808201905061238a60008301876120d1565b61239760208301866120d1565b6123a4604083018561234b565b81810360608301526123b681846120ef565b905095945050505050565b60006020820190506123d660008301846120e0565b92915050565b600060208201905081810360008301526123f68184612128565b905092915050565b6000602082019050818103600083015261241781612161565b9050919050565b6000602082019050818103600083015261243781612184565b9050919050565b60006020820190508181036000830152612457816121a7565b9050919050565b60006020820190508181036000830152612477816121ca565b9050919050565b60006020820190508181036000830152612497816121ed565b9050919050565b600060208201905081810360008301526124b781612210565b9050919050565b600060208201905081810360008301526124d781612233565b9050919050565b600060208201905081810360008301526124f781612256565b9050919050565b6000602082019050818103600083015261251781612279565b9050919050565b600060208201905081810360008301526125378161229c565b9050919050565b60006020820190508181036000830152612557816122bf565b9050919050565b60006020820190508181036000830152612577816122e2565b9050919050565b6000602082019050818103600083015261259781612305565b9050919050565b600060208201905081810360008301526125b781612328565b9050919050565b60006020820190506125d3600083018461234b565b92915050565b60006125e36125f4565b90506125ef828261280a565b919050565b6000604051905090565b600067ffffffffffffffff821115612619576126186128e2565b5b61262282612911565b9050602081019050919050565b600067ffffffffffffffff82111561264a576126496128e2565b5b61265382612911565b9050602081019050919050565b600081519050919050565b600081519050919050565b600082825260208201905092915050565b600082825260208201905092915050565b60006126a38261278c565b91506126ae8361278c565b9250827fffffffffffffffffffffffffffffffffffffffffffffffffffffffffffffffff038211156126e3576126e2612884565b5b828201905092915050565b60006126f98261278c565b91506127048361278c565b92508282101561271757612716612884565b5b828203905092915050565b600061272d8261276c565b9050919050565b60008115159050919050565b60007fffffffff0000000000000000000000000000000000000000000000000000000082169050919050565b600073ffffffffffffffffffffffffffffffffffffffff82169050919050565b6000819050919050565b82818337600083830152505050565b60005b838110156127c35780820151818401526020810190506127a8565b838111156127d2576000848401525b50505050565b600060028204905060018216806127f057607f821691505b60208210811415612804576128036128b3565b5b50919050565b61281382612911565b810181811067ffffffffffffffff82111715612832576128316128e2565b5b80604052505050565b60006128468261278c565b91507fffffffffffffffffffffffffffffffffffffffffffffffffffffffffffffffff82141561287957612878612884565b5b600182019050919050565b7f4e487b7100000000000000000000000000000000000000000000000000000000600052601160045260246000fd5b7f4e487b7100000000000000000000000000000000000000000000000000000000600052602260045260246000fd5b7f4e487b7100000000000000000000000000000000000000000000000000000000600052604160045260246000fd5b6000601f19601f8301169050919050565b7f4552433732313a2063616c6c6572206973206e6f7420746f6b656e206f776e6560008201527f72206f7220617070726f76656400000000000000000000000000000000000000602082015250565b7f596f75206d7573742070726f7669646520612076616c696420546f6b656e205560008201527f5249000000000000000000000000000000000000000000000000000000000000602082015250565b7f4552433732313a207472616e7366657220746f206e6f6e20455243373231526560008201527f63656976657220696d706c656d656e7465720000000000000000000000000000602082015250565b7f4552433732313a207472616e736665722066726f6d20696e636f72726563742060008201527f6f776e6572000000000000000000000000000000000000000000000000000000602082015250565b7f4552433732313a20746f6b656e20616c7265616479206d696e74656400000000600082015250565b7f4552433732314d657461646174613a205552492073657420746f206120746f6b60008201527f656e207468617420646f65736e74206578697374000000000000000000000000602082015250565b7f4552433732313a207472616e7366657220746f20746865207a65726f2061646460008201527f7265737300000000000000000000000000000000000000000000000000000000602082015250565b7f4552433732313a20617070726f766520746f2063616c6c657200000000000000600082015250565b7f4552433732313a2061646472657373207a65726f206973206e6f74206120766160008201527f6c6964206f776e65720000000000000000000000000000000000000000000000602082015250565b7f4552433732313a206d696e7420746f20746865207a65726f2061646472657373600082015250565b7f4552433732313a20696e76616c696420746f6b656e2049440000000000000000600082015250565b7f4552433732313a20617070726f76616c20746f2063757272656e74206f776e6560008201527f7200000000000000000000000000000000000000000000000000000000000000602082015250565b7f596f75206d757374207370656e64206d6f726500000000000000000000000000600082015250565b7f4552433732313a20617070726f76652063616c6c6572206973206e6f7420746f60008201527f6b656e206f776e6572206f7220617070726f76656420666f7220616c6c000000602082015250565b612cbf81612722565b8114612cca57600080fd5b50565b612cd681612734565b8114612ce157600080fd5b50565b612ced81612740565b8114612cf857600080fd5b50565b612d048161278c565b8114612d0f57600080fd5b5056fea264697066735822122069e6fe81a84ebaab153c3689e17850ff1c719b71f2a4af066358f5235428489d64736f6c63430008040033",
  "linkReferences": {},
  "deployedLinkReferences": {}
}