{
  "_format": "hh-sol-artifact-1",
  "contractName": "Art",
  "sourceName": "contracts/Art.sol",
  "abi": [
    {
      "inputs": [
        {
          "internalType": "string",
          "name": "name",
          "type": "string"
        },
        {
          "internalType": "string",
          "name": "symbol",
          "type": "string"
        }
      ],
      "stateMutability": "nonpayable",
      "type": "constructor"
    },
    {
      "anonymous": false,
      "inputs": [
        {
          "indexed": true,
          "internalType": "address",
          "name": "owner",
          "type": "address"
        },
        {
          "indexed": true,
          "internalType": "address",
          "name": "approved",
          "type": "address"
        },
        {
          "indexed": true,
          "internalType": "uint256",
          "name": "tokenId",
          "type": "uint256"
        }
      ],
      "name": "Approval",
      "type": "event"
    },
    {
      "anonymous": false,
      "inputs": [
        {
          "indexed": true,
          "internalType": "address",
          "name": "owner",
          "type": "address"
        },
        {
          "indexed": true,
          "internalType": "address",
          "name": "operator",
          "type": "address"
        },
        {
          "indexed": false,
          "internalType": "bool",
          "name": "approved",
          "type": "bool"
        }
      ],
      "name": "ApprovalForAll",
      "type": "event"
    },
    {
      "anonymous": false,
      "inputs": [
        {
          "indexed": true,
          "internalType": "address",
          "name": "from",
          "type": "address"
        },
        {
          "indexed": true,
          "internalType": "address",
          "name": "to",
          "type": "address"
        },
        {
          "indexed": true,
          "internalType": "uint256",
          "name": "tokenId",
          "type": "uint256"
        }
      ],
      "name": "Transfer",
      "type": "event"
    },
    {
      "inputs": [
        {
          "internalType": "address",
          "name": "to",
          "type": "address"
        },
        {
          "internalType": "uint256",
          "name": "tokenId",
          "type": "uint256"
        }
      ],
      "name": "approve",
      "outputs": [],
      "stateMutability": "nonpayable",
      "type": "function"
    },
    {
      "inputs": [
        {
          "internalType": "address",
          "name": "owner",
          "type": "address"
        }
      ],
      "name": "balanceOf",
      "outputs": [
        {
          "internalType": "uint256",
          "name": "",
          "type": "uint256"
        }
      ],
      "stateMutability": "view",
      "type": "function"
    },
    {
      "inputs": [
        {
          "internalType": "uint256",
          "name": "tokenId",
          "type": "uint256"
        }
      ],
      "name": "getApproved",
      "outputs": [
        {
          "internalType": "address",
          "name": "",
          "type": "address"
        }
      ],
      "stateMutability": "view",
      "type": "function"
    },
    {
      "inputs": [
        {
          "internalType": "address",
          "name": "owner",
          "type": "address"
        },
        {
          "internalType": "address",
          "name": "operator",
          "type": "address"
        }
      ],
      "name": "isApprovedForAll",
      "outputs": [
        {
          "internalType": "bool",
          "name": "",
          "type": "bool"
        }
      ],
      "stateMutability": "view",
      "type": "function"
    },
    {
      "inputs": [
        {
          "internalType": "string",
          "name": "_test",
          "type": "string"
        }
      ],
      "name": "isTokenURIEmpty",
      "outputs": [
        {
          "internalType": "bool",
          "name": "",
          "type": "bool"
        }
      ],
      "stateMutability": "pure",
      "type": "function"
    },
    {
      "inputs": [
        {
          "internalType": "string",
          "name": "_tokenURI",
          "type": "string"
        }
      ],
      "name": "mint",
      "outputs": [],
      "stateMutability": "nonpayable",
      "type": "function"
    },
    {
      "inputs": [],
      "name": "name",
      "outputs": [
        {
          "internalType": "string",
          "name": "",
          "type": "string"
        }
      ],
      "stateMutability": "view",
      "type": "function"
    },
    {
      "inputs": [
        {
          "internalType": "uint256",
          "name": "tokenId",
          "type": "uint256"
        }
      ],
      "name": "ownerOf",
      "outputs": [
        {
          "internalType": "address",
          "name": "",
          "type": "address"
        }
      ],
      "stateMutability": "view",
      "type": "function"
    },
    {
      "inputs": [
        {
          "internalType": "address",
          "name": "from",
          "type": "address"
        },
        {
          "internalType": "address",
          "name": "to",
          "type": "address"
        },
        {
          "internalType": "uint256",
          "name": "tokenId",
          "type": "uint256"
        }
      ],
      "name": "safeTransferFrom",
      "outputs": [],
      "stateMutability": "nonpayable",
      "type": "function"
    },
    {
      "inputs": [
        {
          "internalType": "address",
          "name": "from",
          "type": "address"
        },
        {
          "internalType": "address",
          "name": "to",
          "type": "address"
        },
        {
          "internalType": "uint256",
          "name": "tokenId",
          "type": "uint256"
        },
        {
          "internalType": "bytes",
          "name": "data",
          "type": "bytes"
        }
      ],
      "name": "safeTransferFrom",
      "outputs": [],
      "stateMutability": "nonpayable",
      "type": "function"
    },
    {
      "inputs": [
        {
          "internalType": "address",
          "name": "operator",
          "type": "address"
        },
        {
          "internalType": "bool",
          "name": "approved",
          "type": "bool"
        }
      ],
      "name": "setApprovalForAll",
      "outputs": [],
      "stateMutability": "nonpayable",
      "type": "function"
    },
    {
      "inputs": [
        {
          "internalType": "bytes4",
          "name": "interfaceId",
          "type": "bytes4"
        }
      ],
      "name": "supportsInterface",
      "outputs": [
        {
          "internalType": "bool",
          "name": "",
          "type": "bool"
        }
      ],
      "stateMutability": "view",
      "type": "function"
    },
    {
      "inputs": [],
      "name": "symbol",
      "outputs": [
        {
          "internalType": "string",
          "name": "",
          "type": "string"
        }
      ],
      "stateMutability": "view",
      "type": "function"
    },
    {
      "inputs": [],
      "name": "tokenCount",
      "outputs": [
        {
          "internalType": "uint256",
          "name": "",
          "type": "uint256"
        }
      ],
      "stateMutability": "view",
      "type": "function"
    },
    {
      "inputs": [
        {
          "internalType": "uint256",
          "name": "_tokenId",
          "type": "uint256"
        }
      ],
      "name": "tokenURI",
      "outputs": [
        {
          "internalType": "string",
          "name": "",
          "type": "string"
        }
      ],
      "stateMutability": "view",
      "type": "function"
    },
    {
      "inputs": [
        {
          "internalType": "address",
          "name": "from",
          "type": "address"
        },
        {
          "internalType": "address",
          "name": "to",
          "type": "address"
        },
        {
          "internalType": "uint256",
          "name": "tokenId",
          "type": "uint256"
        }
      ],
      "name": "transferFrom",
      "outputs": [],
      "stateMutability": "nonpayable",
      "type": "function"
    }
  ],
  "bytecode": "0x60806040523480156200001157600080fd5b5060405162002d3338038062002d3383398181016040528101906200003791906200019f565b81818160009080519060200190620000519291906200007d565b5080600190805190602001906200006a9291906200007d565b5050506001600681905550505062000382565b8280546200008b90620002a7565b90600052602060002090601f016020900481019282620000af5760008555620000fb565b82601f10620000ca57805160ff1916838001178555620000fb565b82800160010185558215620000fb579182015b82811115620000fa578251825591602001919060010190620000dd565b5b5090506200010a91906200010e565b5090565b5b80821115620001295760008160009055506001016200010f565b5090565b6000620001446200013e846200023b565b62000212565b9050828152602081018484840111156200015d57600080fd5b6200016a84828562000271565b509392505050565b600082601f8301126200018457600080fd5b8151620001968482602086016200012d565b91505092915050565b60008060408385031215620001b357600080fd5b600083015167ffffffffffffffff811115620001ce57600080fd5b620001dc8582860162000172565b925050602083015167ffffffffffffffff811115620001fa57600080fd5b620002088582860162000172565b9150509250929050565b60006200021e62000231565b90506200022c8282620002dd565b919050565b6000604051905090565b600067ffffffffffffffff82111562000259576200025862000342565b5b620002648262000371565b9050602081019050919050565b60005b838110156200029157808201518184015260208101905062000274565b83811115620002a1576000848401525b50505050565b60006002820490506001821680620002c057607f821691505b60208210811415620002d757620002d662000313565b5b50919050565b620002e88262000371565b810181811067ffffffffffffffff821117156200030a576200030962000342565b5b80604052505050565b7f4e487b7100000000000000000000000000000000000000000000000000000000600052602260045260246000fd5b7f4e487b7100000000000000000000000000000000000000000000000000000000600052604160045260246000fd5b6000601f19601f8301169050919050565b6129a180620003926000396000f3fe608060405234801561001057600080fd5b50600436106101005760003560e01c806370a0823111610097578063b88d4fde11610066578063b88d4fde146102bf578063c87b56dd146102db578063d85d3d271461030b578063e985e9c51461032757610100565b806370a082311461023757806395d89b41146102675780639f181b5e14610285578063a22cb465146102a357610100565b80631d089e51116100d35780631d089e511461019f57806323b872dd146101cf57806342842e0e146101eb5780636352211e1461020757610100565b806301ffc9a71461010557806306fdde0314610135578063081812fc14610153578063095ea7b314610183575b600080fd5b61011f600480360381019061011a9190611cda565b610357565b60405161012c9190612063565b60405180910390f35b61013d610439565b60405161014a919061207e565b60405180910390f35b61016d60048036038101906101689190611d6d565b6104cb565b60405161017a9190611ffc565b60405180910390f35b61019d60048036038101906101989190611c9e565b610511565b005b6101b960048036038101906101b49190611d2c565b610629565b6040516101c69190612063565b60405180910390f35b6101e960048036038101906101e49190611b98565b61064e565b005b61020560048036038101906102009190611b98565b6106ae565b005b610221600480360381019061021c9190611d6d565b6106ce565b60405161022e9190611ffc565b60405180910390f35b610251600480360381019061024c9190611b33565b610755565b60405161025e9190612240565b60405180910390f35b61026f61080d565b60405161027c919061207e565b60405180910390f35b61028d61089f565b60405161029a9190612240565b60405180910390f35b6102bd60048036038101906102b89190611c62565b6108a5565b005b6102d960048036038101906102d49190611be7565b6108bb565b005b6102f560048036038101906102f09190611d6d565b61091d565b604051610302919061207e565b60405180910390f35b61032560048036038101906103209190611d2c565b610a0a565b005b610341600480360381019061033c9190611b5c565b610ac4565b60405161034e9190612063565b60405180910390f35b60007f80ac58cd000000000000000000000000000000000000000000000000000000007bffffffffffffffffffffffffffffffffffffffffffffffffffffffff1916827bffffffffffffffffffffffffffffffffffffffffffffffffffffffff1916148061042257507f5b5e139f000000000000000000000000000000000000000000000000000000007bffffffffffffffffffffffffffffffffffffffffffffffffffffffff1916827bffffffffffffffffffffffffffffffffffffffffffffffffffffffff1916145b80610432575061043182610b58565b5b9050919050565b6060600080546104489061245a565b80601f01602080910402602001604051908101604052809291908181526020018280546104749061245a565b80156104c15780601f10610496576101008083540402835291602001916104c1565b820191906000526020600020905b8154815290600101906020018083116104a457829003601f168201915b5050505050905090565b60006104d682610bc2565b6004600083815260200190815260200160002060009054906101000a900473ffffffffffffffffffffffffffffffffffffffff169050919050565b600061051c826106ce565b90508073ffffffffffffffffffffffffffffffffffffffff168373ffffffffffffffffffffffffffffffffffffffff16141561058d576040517f08c379a000000000000000000000000000000000000000000000000000000000815260040161058490612200565b60405180910390fd5b8073ffffffffffffffffffffffffffffffffffffffff166105ac610c0d565b73ffffffffffffffffffffffffffffffffffffffff1614806105db57506105da816105d5610c0d565b610ac4565b5b61061a576040517f08c379a000000000000000000000000000000000000000000000000000000000815260040161061190612220565b60405180910390fd5b6106248383610c15565b505050565b600080829050600081511115610643576000915050610649565b60019150505b919050565b61065f610659610c0d565b82610cce565b61069e576040517f08c379a0000000000000000000000000000000000000000000000000000000008152600401610695906120a0565b60405180910390fd5b6106a9838383610d63565b505050565b6106c9838383604051806020016040528060008152506108bb565b505050565b6000806106da8361105d565b9050600073ffffffffffffffffffffffffffffffffffffffff168173ffffffffffffffffffffffffffffffffffffffff16141561074c576040517f08c379a0000000000000000000000000000000000000000000000000000000008152600401610743906121e0565b60405180910390fd5b80915050919050565b60008073ffffffffffffffffffffffffffffffffffffffff168273ffffffffffffffffffffffffffffffffffffffff1614156107c6576040517f08c379a00000000000000000000000000000000000000000000000000000000081526004016107bd906121a0565b60405180910390fd5b600360008373ffffffffffffffffffffffffffffffffffffffff1673ffffffffffffffffffffffffffffffffffffffff168152602001908152602001600020549050919050565b60606001805461081c9061245a565b80601f01602080910402602001604051908101604052809291908181526020018280546108489061245a565b80156108955780601f1061086a57610100808354040283529160200191610895565b820191906000526020600020905b81548152906001019060200180831161087857829003601f168201915b5050505050905090565b60065481565b6108b76108b0610c0d565b838361109a565b5050565b6108cc6108c6610c0d565b83610cce565b61090b576040517f08c379a0000000000000000000000000000000000000000000000000000000008152600401610902906120a0565b60405180910390fd5b61091784848484611207565b50505050565b606061092882611263565b610967576040517f08c379a000000000000000000000000000000000000000000000000000000000815260040161095e90612140565b60405180910390fd5b6007600083815260200190815260200160002080546109859061245a565b80601f01602080910402602001604051908101604052809291908181526020018280546109b19061245a565b80156109fe5780601f106109d3576101008083540402835291602001916109fe565b820191906000526020600020905b8154815290600101906020018083116109e157829003601f168201915b50505050509050919050565b610a1381610629565b15610a53576040517f08c379a0000000000000000000000000000000000000000000000000000000008152600401610a4a906120c0565b60405180910390fd5b610a5f336006546112a4565b610a6b600654826112c2565b60066000815480929190610a7e906124bd565b9190505550610ac16040518060400160405280601681526020017f6d696e742066756e6374696f6e2066696e697368656400000000000000000000815250611336565b50565b6000600560008473ffffffffffffffffffffffffffffffffffffffff1673ffffffffffffffffffffffffffffffffffffffff16815260200190815260200160002060008373ffffffffffffffffffffffffffffffffffffffff1673ffffffffffffffffffffffffffffffffffffffff16815260200190815260200160002060009054906101000a900460ff16905092915050565b60007f01ffc9a7000000000000000000000000000000000000000000000000000000007bffffffffffffffffffffffffffffffffffffffffffffffffffffffff1916827bffffffffffffffffffffffffffffffffffffffffffffffffffffffff1916149050919050565b610bcb81611263565b610c0a576040517f08c379a0000000000000000000000000000000000000000000000000000000008152600401610c01906121e0565b60405180910390fd5b50565b600033905090565b816004600083815260200190815260200160002060006101000a81548173ffffffffffffffffffffffffffffffffffffffff021916908373ffffffffffffffffffffffffffffffffffffffff160217905550808273ffffffffffffffffffffffffffffffffffffffff16610c88836106ce565b73ffffffffffffffffffffffffffffffffffffffff167f8c5be1e5ebec7d5bd14f71427d1e84f3dd0314c0f7b2291e5b200ac8c7c3b92560405160405180910390a45050565b600080610cda836106ce565b90508073ffffffffffffffffffffffffffffffffffffffff168473ffffffffffffffffffffffffffffffffffffffff161480610d1c5750610d1b8185610ac4565b5b80610d5a57508373ffffffffffffffffffffffffffffffffffffffff16610d42846104cb565b73ffffffffffffffffffffffffffffffffffffffff16145b91505092915050565b8273ffffffffffffffffffffffffffffffffffffffff16610d83826106ce565b73ffffffffffffffffffffffffffffffffffffffff1614610dd9576040517f08c379a0000000000000000000000000000000000000000000000000000000008152600401610dd090612100565b60405180910390fd5b600073ffffffffffffffffffffffffffffffffffffffff168273ffffffffffffffffffffffffffffffffffffffff161415610e49576040517f08c379a0000000000000000000000000000000000000000000000000000000008152600401610e4090612160565b60405180910390fd5b610e5683838360016113cf565b8273ffffffffffffffffffffffffffffffffffffffff16610e76826106ce565b73ffffffffffffffffffffffffffffffffffffffff1614610ecc576040517f08c379a0000000000000000000000000000000000000000000000000000000008152600401610ec390612100565b60405180910390fd5b6004600082815260200190815260200160002060006101000a81549073ffffffffffffffffffffffffffffffffffffffff02191690556001600360008573ffffffffffffffffffffffffffffffffffffffff1673ffffffffffffffffffffffffffffffffffffffff168152602001908152602001600020600082825403925050819055506001600360008473ffffffffffffffffffffffffffffffffffffffff1673ffffffffffffffffffffffffffffffffffffffff16815260200190815260200160002060008282540192505081905550816002600083815260200190815260200160002060006101000a81548173ffffffffffffffffffffffffffffffffffffffff021916908373ffffffffffffffffffffffffffffffffffffffff160217905550808273ffffffffffffffffffffffffffffffffffffffff168473ffffffffffffffffffffffffffffffffffffffff167fddf252ad1be2c89b69c2b068fc378daa952ba7f163c4a11628f55a4df523b3ef60405160405180910390a461105883838360016114f5565b505050565b60006002600083815260200190815260200160002060009054906101000a900473ffffffffffffffffffffffffffffffffffffffff169050919050565b8173ffffffffffffffffffffffffffffffffffffffff168373ffffffffffffffffffffffffffffffffffffffff161415611109576040517f08c379a000000000000000000000000000000000000000000000000000000000815260040161110090612180565b60405180910390fd5b80600560008573ffffffffffffffffffffffffffffffffffffffff1673ffffffffffffffffffffffffffffffffffffffff16815260200190815260200160002060008473ffffffffffffffffffffffffffffffffffffffff1673ffffffffffffffffffffffffffffffffffffffff16815260200190815260200160002060006101000a81548160ff0219169083151502179055508173ffffffffffffffffffffffffffffffffffffffff168373ffffffffffffffffffffffffffffffffffffffff167f17307eab39ab6107e8899845ad3d59bd9653f200f220920489ca2b5937696c31836040516111fa9190612063565b60405180910390a3505050565b611212848484610d63565b61121e848484846114fb565b61125d576040517f08c379a0000000000000000000000000000000000000000000000000000000008152600401611254906120e0565b60405180910390fd5b50505050565b60008073ffffffffffffffffffffffffffffffffffffffff166112858361105d565b73ffffffffffffffffffffffffffffffffffffffff1614159050919050565b6112be828260405180602001604052806000815250611692565b5050565b6112cb82611263565b61130a576040517f08c379a000000000000000000000000000000000000000000000000000000000815260040161130190612140565b60405180910390fd5b80600760008481526020019081526020016000209080519060200190611331929190611957565b505050565b6113cc8160405160240161134a919061207e565b6040516020818303038152906040527f41304fac000000000000000000000000000000000000000000000000000000007bffffffffffffffffffffffffffffffffffffffffffffffffffffffff19166020820180517bffffffffffffffffffffffffffffffffffffffffffffffffffffffff83818316178352505050506116ed565b50565b60018111156114ef57600073ffffffffffffffffffffffffffffffffffffffff168473ffffffffffffffffffffffffffffffffffffffff16146114635780600360008673ffffffffffffffffffffffffffffffffffffffff1673ffffffffffffffffffffffffffffffffffffffff168152602001908152602001600020600082825461145b9190612370565b925050819055505b600073ffffffffffffffffffffffffffffffffffffffff168373ffffffffffffffffffffffffffffffffffffffff16146114ee5780600360008573ffffffffffffffffffffffffffffffffffffffff1673ffffffffffffffffffffffffffffffffffffffff16815260200190815260200160002060008282546114e6919061231a565b925050819055505b5b50505050565b50505050565b600061151c8473ffffffffffffffffffffffffffffffffffffffff16611716565b15611685578373ffffffffffffffffffffffffffffffffffffffff1663150b7a02611545610c0d565b8786866040518563ffffffff1660e01b81526004016115679493929190612017565b602060405180830381600087803b15801561158157600080fd5b505af19250505080156115b257506040513d601f19601f820116820180604052508101906115af9190611d03565b60015b611635573d80600081146115e2576040519150601f19603f3d011682016040523d82523d6000602084013e6115e7565b606091505b5060008151141561162d576040517f08c379a0000000000000000000000000000000000000000000000000000000008152600401611624906120e0565b60405180910390fd5b805181602001fd5b63150b7a0260e01b7bffffffffffffffffffffffffffffffffffffffffffffffffffffffff1916817bffffffffffffffffffffffffffffffffffffffffffffffffffffffff19161491505061168a565b600190505b949350505050565b61169c8383611739565b6116a960008484846114fb565b6116e8576040517f08c379a00000000000000000000000000000000000000000000000000000000081526004016116df906120e0565b60405180910390fd5b505050565b60008151905060006a636f6e736f6c652e6c6f679050602083016000808483855afa5050505050565b6000808273ffffffffffffffffffffffffffffffffffffffff163b119050919050565b600073ffffffffffffffffffffffffffffffffffffffff168273ffffffffffffffffffffffffffffffffffffffff1614156117a9576040517f08c379a00000000000000000000000000000000000000000000000000000000081526004016117a0906121c0565b60405180910390fd5b6117b281611263565b156117f2576040517f08c379a00000000000000000000000000000000000000000000000000000000081526004016117e990612120565b60405180910390fd5b6118006000838360016113cf565b61180981611263565b15611849576040517f08c379a000000000000000000000000000000000000000000000000000000000815260040161184090612120565b60405180910390fd5b6001600360008473ffffffffffffffffffffffffffffffffffffffff1673ffffffffffffffffffffffffffffffffffffffff16815260200190815260200160002060008282540192505081905550816002600083815260200190815260200160002060006101000a81548173ffffffffffffffffffffffffffffffffffffffff021916908373ffffffffffffffffffffffffffffffffffffffff160217905550808273ffffffffffffffffffffffffffffffffffffffff16600073ffffffffffffffffffffffffffffffffffffffff167fddf252ad1be2c89b69c2b068fc378daa952ba7f163c4a11628f55a4df523b3ef60405160405180910390a46119536000838360016114f5565b5050565b8280546119639061245a565b90600052602060002090601f01602090048101928261198557600085556119cc565b82601f1061199e57805160ff19168380011785556119cc565b828001600101855582156119cc579182015b828111156119cb5782518255916020019190600101906119b0565b5b5090506119d991906119dd565b5090565b5b808211156119f65760008160009055506001016119de565b5090565b6000611a0d611a0884612280565b61225b565b905082815260208101848484011115611a2557600080fd5b611a30848285612418565b509392505050565b6000611a4b611a46846122b1565b61225b565b905082815260208101848484011115611a6357600080fd5b611a6e848285612418565b509392505050565b600081359050611a858161290f565b92915050565b600081359050611a9a81612926565b92915050565b600081359050611aaf8161293d565b92915050565b600081519050611ac48161293d565b92915050565b600082601f830112611adb57600080fd5b8135611aeb8482602086016119fa565b91505092915050565b600082601f830112611b0557600080fd5b8135611b15848260208601611a38565b91505092915050565b600081359050611b2d81612954565b92915050565b600060208284031215611b4557600080fd5b6000611b5384828501611a76565b91505092915050565b60008060408385031215611b6f57600080fd5b6000611b7d85828601611a76565b9250506020611b8e85828601611a76565b9150509250929050565b600080600060608486031215611bad57600080fd5b6000611bbb86828701611a76565b9350506020611bcc86828701611a76565b9250506040611bdd86828701611b1e565b9150509250925092565b60008060008060808587031215611bfd57600080fd5b6000611c0b87828801611a76565b9450506020611c1c87828801611a76565b9350506040611c2d87828801611b1e565b925050606085013567ffffffffffffffff811115611c4a57600080fd5b611c5687828801611aca565b91505092959194509250565b60008060408385031215611c7557600080fd5b6000611c8385828601611a76565b9250506020611c9485828601611a8b565b9150509250929050565b60008060408385031215611cb157600080fd5b6000611cbf85828601611a76565b9250506020611cd085828601611b1e565b9150509250929050565b600060208284031215611cec57600080fd5b6000611cfa84828501611aa0565b91505092915050565b600060208284031215611d1557600080fd5b6000611d2384828501611ab5565b91505092915050565b600060208284031215611d3e57600080fd5b600082013567ffffffffffffffff811115611d5857600080fd5b611d6484828501611af4565b91505092915050565b600060208284031215611d7f57600080fd5b6000611d8d84828501611b1e565b91505092915050565b611d9f816123a4565b82525050565b611dae816123b6565b82525050565b6000611dbf826122e2565b611dc981856122f8565b9350611dd9818560208601612427565b611de281612593565b840191505092915050565b6000611df8826122ed565b611e028185612309565b9350611e12818560208601612427565b611e1b81612593565b840191505092915050565b6000611e33602d83612309565b9150611e3e826125a4565b604082019050919050565b6000611e56602283612309565b9150611e61826125f3565b604082019050919050565b6000611e79603283612309565b9150611e8482612642565b604082019050919050565b6000611e9c602583612309565b9150611ea782612691565b604082019050919050565b6000611ebf601c83612309565b9150611eca826126e0565b602082019050919050565b6000611ee2603483612309565b9150611eed82612709565b604082019050919050565b6000611f05602483612309565b9150611f1082612758565b604082019050919050565b6000611f28601983612309565b9150611f33826127a7565b602082019050919050565b6000611f4b602983612309565b9150611f56826127d0565b604082019050919050565b6000611f6e602083612309565b9150611f798261281f565b602082019050919050565b6000611f91601883612309565b9150611f9c82612848565b602082019050919050565b6000611fb4602183612309565b9150611fbf82612871565b604082019050919050565b6000611fd7603d83612309565b9150611fe2826128c0565b604082019050919050565b611ff68161240e565b82525050565b60006020820190506120116000830184611d96565b92915050565b600060808201905061202c6000830187611d96565b6120396020830186611d96565b6120466040830185611fed565b81810360608301526120588184611db4565b905095945050505050565b60006020820190506120786000830184611da5565b92915050565b600060208201905081810360008301526120988184611ded565b905092915050565b600060208201905081810360008301526120b981611e26565b9050919050565b600060208201905081810360008301526120d981611e49565b9050919050565b600060208201905081810360008301526120f981611e6c565b9050919050565b6000602082019050818103600083015261211981611e8f565b9050919050565b6000602082019050818103600083015261213981611eb2565b9050919050565b6000602082019050818103600083015261215981611ed5565b9050919050565b6000602082019050818103600083015261217981611ef8565b9050919050565b6000602082019050818103600083015261219981611f1b565b9050919050565b600060208201905081810360008301526121b981611f3e565b9050919050565b600060208201905081810360008301526121d981611f61565b9050919050565b600060208201905081810360008301526121f981611f84565b9050919050565b6000602082019050818103600083015261221981611fa7565b9050919050565b6000602082019050818103600083015261223981611fca565b9050919050565b60006020820190506122556000830184611fed565b92915050565b6000612265612276565b9050612271828261248c565b919050565b6000604051905090565b600067ffffffffffffffff82111561229b5761229a612564565b5b6122a482612593565b9050602081019050919050565b600067ffffffffffffffff8211156122cc576122cb612564565b5b6122d582612593565b9050602081019050919050565b600081519050919050565b600081519050919050565b600082825260208201905092915050565b600082825260208201905092915050565b60006123258261240e565b91506123308361240e565b9250827fffffffffffffffffffffffffffffffffffffffffffffffffffffffffffffffff0382111561236557612364612506565b5b828201905092915050565b600061237b8261240e565b91506123868361240e565b92508282101561239957612398612506565b5b828203905092915050565b60006123af826123ee565b9050919050565b60008115159050919050565b60007fffffffff0000000000000000000000000000000000000000000000000000000082169050919050565b600073ffffffffffffffffffffffffffffffffffffffff82169050919050565b6000819050919050565b82818337600083830152505050565b60005b8381101561244557808201518184015260208101905061242a565b83811115612454576000848401525b50505050565b6000600282049050600182168061247257607f821691505b6020821081141561248657612485612535565b5b50919050565b61249582612593565b810181811067ffffffffffffffff821117156124b4576124b3612564565b5b80604052505050565b60006124c88261240e565b91507fffffffffffffffffffffffffffffffffffffffffffffffffffffffffffffffff8214156124fb576124fa612506565b5b600182019050919050565b7f4e487b7100000000000000000000000000000000000000000000000000000000600052601160045260246000fd5b7f4e487b7100000000000000000000000000000000000000000000000000000000600052602260045260246000fd5b7f4e487b7100000000000000000000000000000000000000000000000000000000600052604160045260246000fd5b6000601f19601f8301169050919050565b7f4552433732313a2063616c6c6572206973206e6f7420746f6b656e206f776e6560008201527f72206f7220617070726f76656400000000000000000000000000000000000000602082015250565b7f596f75206d7573742070726f7669646520612076616c696420546f6b656e205560008201527f5249000000000000000000000000000000000000000000000000000000000000602082015250565b7f4552433732313a207472616e7366657220746f206e6f6e20455243373231526560008201527f63656976657220696d706c656d656e7465720000000000000000000000000000602082015250565b7f4552433732313a207472616e736665722066726f6d20696e636f72726563742060008201527f6f776e6572000000000000000000000000000000000000000000000000000000602082015250565b7f4552433732313a20746f6b656e20616c7265616479206d696e74656400000000600082015250565b7f4552433732314d657461646174613a205552492073657420746f206120746f6b60008201527f656e207468617420646f65736e74206578697374000000000000000000000000602082015250565b7f4552433732313a207472616e7366657220746f20746865207a65726f2061646460008201527f7265737300000000000000000000000000000000000000000000000000000000602082015250565b7f4552433732313a20617070726f766520746f2063616c6c657200000000000000600082015250565b7f4552433732313a2061646472657373207a65726f206973206e6f74206120766160008201527f6c6964206f776e65720000000000000000000000000000000000000000000000602082015250565b7f4552433732313a206d696e7420746f20746865207a65726f2061646472657373600082015250565b7f4552433732313a20696e76616c696420746f6b656e2049440000000000000000600082015250565b7f4552433732313a20617070726f76616c20746f2063757272656e74206f776e6560008201527f7200000000000000000000000000000000000000000000000000000000000000602082015250565b7f4552433732313a20617070726f76652063616c6c6572206973206e6f7420746f60008201527f6b656e206f776e6572206f7220617070726f76656420666f7220616c6c000000602082015250565b612918816123a4565b811461292357600080fd5b50565b61292f816123b6565b811461293a57600080fd5b50565b612946816123c2565b811461295157600080fd5b50565b61295d8161240e565b811461296857600080fd5b5056fea26469706673582212201ed93d3d4aaae8b9308923d27997f478d51d3d0905031658ce8032c5740bf07564736f6c63430008040033",
  "linkReferences": {},
  "deployedLinkReferences": {}
}