{
  "_format": "hh-sol-artifact-1",
  "contractName": "Art",
  "sourceName": "contracts/Art.sol",
  "abi": [
    {
      "inputs": [
        {
          "internalType": "string",
          "name": "name",
          "type": "string"
        },
        {
          "internalType": "string",
          "name": "symbol",
          "type": "string"
        }
      ],
      "stateMutability": "nonpayable",
      "type": "constructor"
    },
    {
      "anonymous": false,
      "inputs": [
        {
          "indexed": true,
          "internalType": "address",
          "name": "owner",
          "type": "address"
        },
        {
          "indexed": true,
          "internalType": "address",
          "name": "approved",
          "type": "address"
        },
        {
          "indexed": true,
          "internalType": "uint256",
          "name": "tokenId",
          "type": "uint256"
        }
      ],
      "name": "Approval",
      "type": "event"
    },
    {
      "anonymous": false,
      "inputs": [
        {
          "indexed": true,
          "internalType": "address",
          "name": "owner",
          "type": "address"
        },
        {
          "indexed": true,
          "internalType": "address",
          "name": "operator",
          "type": "address"
        },
        {
          "indexed": false,
          "internalType": "bool",
          "name": "approved",
          "type": "bool"
        }
      ],
      "name": "ApprovalForAll",
      "type": "event"
    },
    {
      "anonymous": false,
      "inputs": [
        {
          "indexed": true,
          "internalType": "address",
          "name": "from",
          "type": "address"
        },
        {
          "indexed": true,
          "internalType": "address",
          "name": "to",
          "type": "address"
        },
        {
          "indexed": true,
          "internalType": "uint256",
          "name": "tokenId",
          "type": "uint256"
        }
      ],
      "name": "Transfer",
      "type": "event"
    },
    {
      "inputs": [
        {
          "internalType": "address",
          "name": "to",
          "type": "address"
        },
        {
          "internalType": "uint256",
          "name": "tokenId",
          "type": "uint256"
        }
      ],
      "name": "approve",
      "outputs": [],
      "stateMutability": "nonpayable",
      "type": "function"
    },
    {
      "inputs": [
        {
          "internalType": "address",
          "name": "owner",
          "type": "address"
        }
      ],
      "name": "balanceOf",
      "outputs": [
        {
          "internalType": "uint256",
          "name": "",
          "type": "uint256"
        }
      ],
      "stateMutability": "view",
      "type": "function"
    },
    {
      "inputs": [
        {
          "internalType": "uint256",
          "name": "tokenId",
          "type": "uint256"
        }
      ],
      "name": "getApproved",
      "outputs": [
        {
          "internalType": "address",
          "name": "",
          "type": "address"
        }
      ],
      "stateMutability": "view",
      "type": "function"
    },
    {
      "inputs": [
        {
          "internalType": "address",
          "name": "owner",
          "type": "address"
        },
        {
          "internalType": "address",
          "name": "operator",
          "type": "address"
        }
      ],
      "name": "isApprovedForAll",
      "outputs": [
        {
          "internalType": "bool",
          "name": "",
          "type": "bool"
        }
      ],
      "stateMutability": "view",
      "type": "function"
    },
    {
      "inputs": [
        {
          "internalType": "string",
          "name": "_test",
          "type": "string"
        }
      ],
      "name": "isTokenURIEmpty",
      "outputs": [
        {
          "internalType": "bool",
          "name": "",
          "type": "bool"
        }
      ],
      "stateMutability": "pure",
      "type": "function"
    },
    {
      "inputs": [
        {
          "internalType": "string",
          "name": "_tokenURI",
          "type": "string"
        }
      ],
      "name": "mint",
      "outputs": [],
      "stateMutability": "nonpayable",
      "type": "function"
    },
    {
      "inputs": [],
      "name": "name",
      "outputs": [
        {
          "internalType": "string",
          "name": "",
          "type": "string"
        }
      ],
      "stateMutability": "view",
      "type": "function"
    },
    {
      "inputs": [
        {
          "internalType": "uint256",
          "name": "tokenId",
          "type": "uint256"
        }
      ],
      "name": "ownerOf",
      "outputs": [
        {
          "internalType": "address",
          "name": "",
          "type": "address"
        }
      ],
      "stateMutability": "view",
      "type": "function"
    },
    {
      "inputs": [
        {
          "internalType": "address",
          "name": "from",
          "type": "address"
        },
        {
          "internalType": "address",
          "name": "to",
          "type": "address"
        },
        {
          "internalType": "uint256",
          "name": "tokenId",
          "type": "uint256"
        }
      ],
      "name": "safeTransferFrom",
      "outputs": [],
      "stateMutability": "nonpayable",
      "type": "function"
    },
    {
      "inputs": [
        {
          "internalType": "address",
          "name": "from",
          "type": "address"
        },
        {
          "internalType": "address",
          "name": "to",
          "type": "address"
        },
        {
          "internalType": "uint256",
          "name": "tokenId",
          "type": "uint256"
        },
        {
          "internalType": "bytes",
          "name": "data",
          "type": "bytes"
        }
      ],
      "name": "safeTransferFrom",
      "outputs": [],
      "stateMutability": "nonpayable",
      "type": "function"
    },
    {
      "inputs": [
        {
          "internalType": "address",
          "name": "operator",
          "type": "address"
        },
        {
          "internalType": "bool",
          "name": "approved",
          "type": "bool"
        }
      ],
      "name": "setApprovalForAll",
      "outputs": [],
      "stateMutability": "nonpayable",
      "type": "function"
    },
    {
      "inputs": [
        {
          "internalType": "bytes4",
          "name": "interfaceId",
          "type": "bytes4"
        }
      ],
      "name": "supportsInterface",
      "outputs": [
        {
          "internalType": "bool",
          "name": "",
          "type": "bool"
        }
      ],
      "stateMutability": "view",
      "type": "function"
    },
    {
      "inputs": [],
      "name": "symbol",
      "outputs": [
        {
          "internalType": "string",
          "name": "",
          "type": "string"
        }
      ],
      "stateMutability": "view",
      "type": "function"
    },
    {
      "inputs": [],
      "name": "tokenCount",
      "outputs": [
        {
          "internalType": "uint256",
          "name": "",
          "type": "uint256"
        }
      ],
      "stateMutability": "view",
      "type": "function"
    },
    {
      "inputs": [
        {
          "internalType": "uint256",
          "name": "_tokenId",
          "type": "uint256"
        }
      ],
      "name": "tokenURI",
      "outputs": [
        {
          "internalType": "string",
          "name": "",
          "type": "string"
        }
      ],
      "stateMutability": "view",
      "type": "function"
    },
    {
      "inputs": [
        {
          "internalType": "address",
          "name": "from",
          "type": "address"
        },
        {
          "internalType": "address",
          "name": "to",
          "type": "address"
        },
        {
          "internalType": "uint256",
          "name": "tokenId",
          "type": "uint256"
        }
      ],
      "name": "transferFrom",
      "outputs": [],
      "stateMutability": "nonpayable",
      "type": "function"
    }
  ],
  "bytecode": "0x60806040523480156200001157600080fd5b5060405162002ded38038062002ded83398181016040528101906200003791906200019f565b81818160009080519060200190620000519291906200007d565b5080600190805190602001906200006a9291906200007d565b5050506001600681905550505062000382565b8280546200008b90620002a7565b90600052602060002090601f016020900481019282620000af5760008555620000fb565b82601f10620000ca57805160ff1916838001178555620000fb565b82800160010185558215620000fb579182015b82811115620000fa578251825591602001919060010190620000dd565b5b5090506200010a91906200010e565b5090565b5b80821115620001295760008160009055506001016200010f565b5090565b6000620001446200013e846200023b565b62000212565b9050828152602081018484840111156200015d57600080fd5b6200016a84828562000271565b509392505050565b600082601f8301126200018457600080fd5b8151620001968482602086016200012d565b91505092915050565b60008060408385031215620001b357600080fd5b600083015167ffffffffffffffff811115620001ce57600080fd5b620001dc8582860162000172565b925050602083015167ffffffffffffffff811115620001fa57600080fd5b620002088582860162000172565b9150509250929050565b60006200021e62000231565b90506200022c8282620002dd565b919050565b6000604051905090565b600067ffffffffffffffff82111562000259576200025862000342565b5b620002648262000371565b9050602081019050919050565b60005b838110156200029157808201518184015260208101905062000274565b83811115620002a1576000848401525b50505050565b60006002820490506001821680620002c057607f821691505b60208210811415620002d757620002d662000313565b5b50919050565b620002e88262000371565b810181811067ffffffffffffffff821117156200030a576200030962000342565b5b80604052505050565b7f4e487b7100000000000000000000000000000000000000000000000000000000600052602260045260246000fd5b7f4e487b7100000000000000000000000000000000000000000000000000000000600052604160045260246000fd5b6000601f19601f8301169050919050565b612a5b80620003926000396000f3fe608060405234801561001057600080fd5b50600436106101005760003560e01c806370a0823111610097578063b88d4fde11610066578063b88d4fde146102bf578063c87b56dd146102db578063d85d3d271461030b578063e985e9c51461032757610100565b806370a082311461023757806395d89b41146102675780639f181b5e14610285578063a22cb465146102a357610100565b80631d089e51116100d35780631d089e511461019f57806323b872dd146101cf57806342842e0e146101eb5780636352211e1461020757610100565b806301ffc9a71461010557806306fdde0314610135578063081812fc14610153578063095ea7b314610183575b600080fd5b61011f600480360381019061011a9190611d94565b610357565b60405161012c919061211d565b60405180910390f35b61013d610439565b60405161014a9190612138565b60405180910390f35b61016d60048036038101906101689190611e27565b6104cb565b60405161017a91906120b6565b60405180910390f35b61019d60048036038101906101989190611d58565b610511565b005b6101b960048036038101906101b49190611de6565b610629565b6040516101c6919061211d565b60405180910390f35b6101e960048036038101906101e49190611c52565b61064e565b005b61020560048036038101906102009190611c52565b6106ae565b005b610221600480360381019061021c9190611e27565b6106ce565b60405161022e91906120b6565b60405180910390f35b610251600480360381019061024c9190611bed565b610755565b60405161025e91906122fa565b60405180910390f35b61026f61080d565b60405161027c9190612138565b60405180910390f35b61028d61089f565b60405161029a91906122fa565b60405180910390f35b6102bd60048036038101906102b89190611d1c565b6108a5565b005b6102d960048036038101906102d49190611ca1565b6108bb565b005b6102f560048036038101906102f09190611e27565b61091d565b6040516103029190612138565b60405180910390f35b61032560048036038101906103209190611de6565b610a0a565b005b610341600480360381019061033c9190611c16565b610b7e565b60405161034e919061211d565b60405180910390f35b60007f80ac58cd000000000000000000000000000000000000000000000000000000007bffffffffffffffffffffffffffffffffffffffffffffffffffffffff1916827bffffffffffffffffffffffffffffffffffffffffffffffffffffffff1916148061042257507f5b5e139f000000000000000000000000000000000000000000000000000000007bffffffffffffffffffffffffffffffffffffffffffffffffffffffff1916827bffffffffffffffffffffffffffffffffffffffffffffffffffffffff1916145b80610432575061043182610c12565b5b9050919050565b60606000805461044890612514565b80601f016020809104026020016040519081016040528092919081815260200182805461047490612514565b80156104c15780601f10610496576101008083540402835291602001916104c1565b820191906000526020600020905b8154815290600101906020018083116104a457829003601f168201915b5050505050905090565b60006104d682610c7c565b6004600083815260200190815260200160002060009054906101000a900473ffffffffffffffffffffffffffffffffffffffff169050919050565b600061051c826106ce565b90508073ffffffffffffffffffffffffffffffffffffffff168373ffffffffffffffffffffffffffffffffffffffff16141561058d576040517f08c379a0000000000000000000000000000000000000000000000000000000008152600401610584906122ba565b60405180910390fd5b8073ffffffffffffffffffffffffffffffffffffffff166105ac610cc7565b73ffffffffffffffffffffffffffffffffffffffff1614806105db57506105da816105d5610cc7565b610b7e565b5b61061a576040517f08c379a0000000000000000000000000000000000000000000000000000000008152600401610611906122da565b60405180910390fd5b6106248383610ccf565b505050565b600080829050600081511115610643576000915050610649565b60019150505b919050565b61065f610659610cc7565b82610d88565b61069e576040517f08c379a00000000000000000000000000000000000000000000000000000000081526004016106959061215a565b60405180910390fd5b6106a9838383610e1d565b505050565b6106c9838383604051806020016040528060008152506108bb565b505050565b6000806106da83611117565b9050600073ffffffffffffffffffffffffffffffffffffffff168173ffffffffffffffffffffffffffffffffffffffff16141561074c576040517f08c379a00000000000000000000000000000000000000000000000000000000081526004016107439061229a565b60405180910390fd5b80915050919050565b60008073ffffffffffffffffffffffffffffffffffffffff168273ffffffffffffffffffffffffffffffffffffffff1614156107c6576040517f08c379a00000000000000000000000000000000000000000000000000000000081526004016107bd9061225a565b60405180910390fd5b600360008373ffffffffffffffffffffffffffffffffffffffff1673ffffffffffffffffffffffffffffffffffffffff168152602001908152602001600020549050919050565b60606001805461081c90612514565b80601f016020809104026020016040519081016040528092919081815260200182805461084890612514565b80156108955780601f1061086a57610100808354040283529160200191610895565b820191906000526020600020905b81548152906001019060200180831161087857829003601f168201915b5050505050905090565b60065481565b6108b76108b0610cc7565b8383611154565b5050565b6108cc6108c6610cc7565b83610d88565b61090b576040517f08c379a00000000000000000000000000000000000000000000000000000000081526004016109029061215a565b60405180910390fd5b610917848484846112c1565b50505050565b60606109288261131d565b610967576040517f08c379a000000000000000000000000000000000000000000000000000000000815260040161095e906121fa565b60405180910390fd5b60076000838152602001908152602001600020805461098590612514565b80601f01602080910402602001604051908101604052809291908181526020018280546109b190612514565b80156109fe5780601f106109d3576101008083540402835291602001916109fe565b820191906000526020600020905b8154815290600101906020018083116109e157829003601f168201915b50505050509050919050565b610a1381610629565b15610a53576040517f08c379a0000000000000000000000000000000000000000000000000000000008152600401610a4a9061217a565b60405180910390fd5b610a5f3360065461135e565b610a9d6040518060400160405280601b81526020017f5f736166656d696e742066756e6374696f6e206578656375746564000000000081525061137c565b610aa960065482611415565b610ae76040518060400160405280601e81526020017f5f736574546f6b656e5552492066756e6374696f6e206578656375746564000081525061137c565b610b256040518060400160405280601a81526020017f746f6b656e436f756e742026205f746f6b656e5552492073657400000000000081525061137c565b60066000815480929190610b3890612577565b9190505550610b7b6040518060400160405280601681526020017f746f6b656e436f756e7420696e6372656d656e7465640000000000000000000081525061137c565b50565b6000600560008473ffffffffffffffffffffffffffffffffffffffff1673ffffffffffffffffffffffffffffffffffffffff16815260200190815260200160002060008373ffffffffffffffffffffffffffffffffffffffff1673ffffffffffffffffffffffffffffffffffffffff16815260200190815260200160002060009054906101000a900460ff16905092915050565b60007f01ffc9a7000000000000000000000000000000000000000000000000000000007bffffffffffffffffffffffffffffffffffffffffffffffffffffffff1916827bffffffffffffffffffffffffffffffffffffffffffffffffffffffff1916149050919050565b610c858161131d565b610cc4576040517f08c379a0000000000000000000000000000000000000000000000000000000008152600401610cbb9061229a565b60405180910390fd5b50565b600033905090565b816004600083815260200190815260200160002060006101000a81548173ffffffffffffffffffffffffffffffffffffffff021916908373ffffffffffffffffffffffffffffffffffffffff160217905550808273ffffffffffffffffffffffffffffffffffffffff16610d42836106ce565b73ffffffffffffffffffffffffffffffffffffffff167f8c5be1e5ebec7d5bd14f71427d1e84f3dd0314c0f7b2291e5b200ac8c7c3b92560405160405180910390a45050565b600080610d94836106ce565b90508073ffffffffffffffffffffffffffffffffffffffff168473ffffffffffffffffffffffffffffffffffffffff161480610dd65750610dd58185610b7e565b5b80610e1457508373ffffffffffffffffffffffffffffffffffffffff16610dfc846104cb565b73ffffffffffffffffffffffffffffffffffffffff16145b91505092915050565b8273ffffffffffffffffffffffffffffffffffffffff16610e3d826106ce565b73ffffffffffffffffffffffffffffffffffffffff1614610e93576040517f08c379a0000000000000000000000000000000000000000000000000000000008152600401610e8a906121ba565b60405180910390fd5b600073ffffffffffffffffffffffffffffffffffffffff168273ffffffffffffffffffffffffffffffffffffffff161415610f03576040517f08c379a0000000000000000000000000000000000000000000000000000000008152600401610efa9061221a565b60405180910390fd5b610f108383836001611489565b8273ffffffffffffffffffffffffffffffffffffffff16610f30826106ce565b73ffffffffffffffffffffffffffffffffffffffff1614610f86576040517f08c379a0000000000000000000000000000000000000000000000000000000008152600401610f7d906121ba565b60405180910390fd5b6004600082815260200190815260200160002060006101000a81549073ffffffffffffffffffffffffffffffffffffffff02191690556001600360008573ffffffffffffffffffffffffffffffffffffffff1673ffffffffffffffffffffffffffffffffffffffff168152602001908152602001600020600082825403925050819055506001600360008473ffffffffffffffffffffffffffffffffffffffff1673ffffffffffffffffffffffffffffffffffffffff16815260200190815260200160002060008282540192505081905550816002600083815260200190815260200160002060006101000a81548173ffffffffffffffffffffffffffffffffffffffff021916908373ffffffffffffffffffffffffffffffffffffffff160217905550808273ffffffffffffffffffffffffffffffffffffffff168473ffffffffffffffffffffffffffffffffffffffff167fddf252ad1be2c89b69c2b068fc378daa952ba7f163c4a11628f55a4df523b3ef60405160405180910390a461111283838360016115af565b505050565b60006002600083815260200190815260200160002060009054906101000a900473ffffffffffffffffffffffffffffffffffffffff169050919050565b8173ffffffffffffffffffffffffffffffffffffffff168373ffffffffffffffffffffffffffffffffffffffff1614156111c3576040517f08c379a00000000000000000000000000000000000000000000000000000000081526004016111ba9061223a565b60405180910390fd5b80600560008573ffffffffffffffffffffffffffffffffffffffff1673ffffffffffffffffffffffffffffffffffffffff16815260200190815260200160002060008473ffffffffffffffffffffffffffffffffffffffff1673ffffffffffffffffffffffffffffffffffffffff16815260200190815260200160002060006101000a81548160ff0219169083151502179055508173ffffffffffffffffffffffffffffffffffffffff168373ffffffffffffffffffffffffffffffffffffffff167f17307eab39ab6107e8899845ad3d59bd9653f200f220920489ca2b5937696c31836040516112b4919061211d565b60405180910390a3505050565b6112cc848484610e1d565b6112d8848484846115b5565b611317576040517f08c379a000000000000000000000000000000000000000000000000000000000815260040161130e9061219a565b60405180910390fd5b50505050565b60008073ffffffffffffffffffffffffffffffffffffffff1661133f83611117565b73ffffffffffffffffffffffffffffffffffffffff1614159050919050565b61137882826040518060200160405280600081525061174c565b5050565b611412816040516024016113909190612138565b6040516020818303038152906040527f41304fac000000000000000000000000000000000000000000000000000000007bffffffffffffffffffffffffffffffffffffffffffffffffffffffff19166020820180517bffffffffffffffffffffffffffffffffffffffffffffffffffffffff83818316178352505050506117a7565b50565b61141e8261131d565b61145d576040517f08c379a0000000000000000000000000000000000000000000000000000000008152600401611454906121fa565b60405180910390fd5b80600760008481526020019081526020016000209080519060200190611484929190611a11565b505050565b60018111156115a957600073ffffffffffffffffffffffffffffffffffffffff168473ffffffffffffffffffffffffffffffffffffffff161461151d5780600360008673ffffffffffffffffffffffffffffffffffffffff1673ffffffffffffffffffffffffffffffffffffffff1681526020019081526020016000206000828254611515919061242a565b925050819055505b600073ffffffffffffffffffffffffffffffffffffffff168373ffffffffffffffffffffffffffffffffffffffff16146115a85780600360008573ffffffffffffffffffffffffffffffffffffffff1673ffffffffffffffffffffffffffffffffffffffff16815260200190815260200160002060008282546115a091906123d4565b925050819055505b5b50505050565b50505050565b60006115d68473ffffffffffffffffffffffffffffffffffffffff166117d0565b1561173f578373ffffffffffffffffffffffffffffffffffffffff1663150b7a026115ff610cc7565b8786866040518563ffffffff1660e01b815260040161162194939291906120d1565b602060405180830381600087803b15801561163b57600080fd5b505af192505050801561166c57506040513d601f19601f820116820180604052508101906116699190611dbd565b60015b6116ef573d806000811461169c576040519150601f19603f3d011682016040523d82523d6000602084013e6116a1565b606091505b506000815114156116e7576040517f08c379a00000000000000000000000000000000000000000000000000000000081526004016116de9061219a565b60405180910390fd5b805181602001fd5b63150b7a0260e01b7bffffffffffffffffffffffffffffffffffffffffffffffffffffffff1916817bffffffffffffffffffffffffffffffffffffffffffffffffffffffff191614915050611744565b600190505b949350505050565b61175683836117f3565b61176360008484846115b5565b6117a2576040517f08c379a00000000000000000000000000000000000000000000000000000000081526004016117999061219a565b60405180910390fd5b505050565b60008151905060006a636f6e736f6c652e6c6f679050602083016000808483855afa5050505050565b6000808273ffffffffffffffffffffffffffffffffffffffff163b119050919050565b600073ffffffffffffffffffffffffffffffffffffffff168273ffffffffffffffffffffffffffffffffffffffff161415611863576040517f08c379a000000000000000000000000000000000000000000000000000000000815260040161185a9061227a565b60405180910390fd5b61186c8161131d565b156118ac576040517f08c379a00000000000000000000000000000000000000000000000000000000081526004016118a3906121da565b60405180910390fd5b6118ba600083836001611489565b6118c38161131d565b15611903576040517f08c379a00000000000000000000000000000000000000000000000000000000081526004016118fa906121da565b60405180910390fd5b6001600360008473ffffffffffffffffffffffffffffffffffffffff1673ffffffffffffffffffffffffffffffffffffffff16815260200190815260200160002060008282540192505081905550816002600083815260200190815260200160002060006101000a81548173ffffffffffffffffffffffffffffffffffffffff021916908373ffffffffffffffffffffffffffffffffffffffff160217905550808273ffffffffffffffffffffffffffffffffffffffff16600073ffffffffffffffffffffffffffffffffffffffff167fddf252ad1be2c89b69c2b068fc378daa952ba7f163c4a11628f55a4df523b3ef60405160405180910390a4611a0d6000838360016115af565b5050565b828054611a1d90612514565b90600052602060002090601f016020900481019282611a3f5760008555611a86565b82601f10611a5857805160ff1916838001178555611a86565b82800160010185558215611a86579182015b82811115611a85578251825591602001919060010190611a6a565b5b509050611a939190611a97565b5090565b5b80821115611ab0576000816000905550600101611a98565b5090565b6000611ac7611ac28461233a565b612315565b905082815260208101848484011115611adf57600080fd5b611aea8482856124d2565b509392505050565b6000611b05611b008461236b565b612315565b905082815260208101848484011115611b1d57600080fd5b611b288482856124d2565b509392505050565b600081359050611b3f816129c9565b92915050565b600081359050611b54816129e0565b92915050565b600081359050611b69816129f7565b92915050565b600081519050611b7e816129f7565b92915050565b600082601f830112611b9557600080fd5b8135611ba5848260208601611ab4565b91505092915050565b600082601f830112611bbf57600080fd5b8135611bcf848260208601611af2565b91505092915050565b600081359050611be781612a0e565b92915050565b600060208284031215611bff57600080fd5b6000611c0d84828501611b30565b91505092915050565b60008060408385031215611c2957600080fd5b6000611c3785828601611b30565b9250506020611c4885828601611b30565b9150509250929050565b600080600060608486031215611c6757600080fd5b6000611c7586828701611b30565b9350506020611c8686828701611b30565b9250506040611c9786828701611bd8565b9150509250925092565b60008060008060808587031215611cb757600080fd5b6000611cc587828801611b30565b9450506020611cd687828801611b30565b9350506040611ce787828801611bd8565b925050606085013567ffffffffffffffff811115611d0457600080fd5b611d1087828801611b84565b91505092959194509250565b60008060408385031215611d2f57600080fd5b6000611d3d85828601611b30565b9250506020611d4e85828601611b45565b9150509250929050565b60008060408385031215611d6b57600080fd5b6000611d7985828601611b30565b9250506020611d8a85828601611bd8565b9150509250929050565b600060208284031215611da657600080fd5b6000611db484828501611b5a565b91505092915050565b600060208284031215611dcf57600080fd5b6000611ddd84828501611b6f565b91505092915050565b600060208284031215611df857600080fd5b600082013567ffffffffffffffff811115611e1257600080fd5b611e1e84828501611bae565b91505092915050565b600060208284031215611e3957600080fd5b6000611e4784828501611bd8565b91505092915050565b611e598161245e565b82525050565b611e6881612470565b82525050565b6000611e798261239c565b611e8381856123b2565b9350611e938185602086016124e1565b611e9c8161264d565b840191505092915050565b6000611eb2826123a7565b611ebc81856123c3565b9350611ecc8185602086016124e1565b611ed58161264d565b840191505092915050565b6000611eed602d836123c3565b9150611ef88261265e565b604082019050919050565b6000611f106022836123c3565b9150611f1b826126ad565b604082019050919050565b6000611f336032836123c3565b9150611f3e826126fc565b604082019050919050565b6000611f566025836123c3565b9150611f618261274b565b604082019050919050565b6000611f79601c836123c3565b9150611f848261279a565b602082019050919050565b6000611f9c6034836123c3565b9150611fa7826127c3565b604082019050919050565b6000611fbf6024836123c3565b9150611fca82612812565b604082019050919050565b6000611fe26019836123c3565b9150611fed82612861565b602082019050919050565b60006120056029836123c3565b91506120108261288a565b604082019050919050565b60006120286020836123c3565b9150612033826128d9565b602082019050919050565b600061204b6018836123c3565b915061205682612902565b602082019050919050565b600061206e6021836123c3565b91506120798261292b565b604082019050919050565b6000612091603d836123c3565b915061209c8261297a565b604082019050919050565b6120b0816124c8565b82525050565b60006020820190506120cb6000830184611e50565b92915050565b60006080820190506120e66000830187611e50565b6120f36020830186611e50565b61210060408301856120a7565b81810360608301526121128184611e6e565b905095945050505050565b60006020820190506121326000830184611e5f565b92915050565b600060208201905081810360008301526121528184611ea7565b905092915050565b6000602082019050818103600083015261217381611ee0565b9050919050565b6000602082019050818103600083015261219381611f03565b9050919050565b600060208201905081810360008301526121b381611f26565b9050919050565b600060208201905081810360008301526121d381611f49565b9050919050565b600060208201905081810360008301526121f381611f6c565b9050919050565b6000602082019050818103600083015261221381611f8f565b9050919050565b6000602082019050818103600083015261223381611fb2565b9050919050565b6000602082019050818103600083015261225381611fd5565b9050919050565b6000602082019050818103600083015261227381611ff8565b9050919050565b600060208201905081810360008301526122938161201b565b9050919050565b600060208201905081810360008301526122b38161203e565b9050919050565b600060208201905081810360008301526122d381612061565b9050919050565b600060208201905081810360008301526122f381612084565b9050919050565b600060208201905061230f60008301846120a7565b92915050565b600061231f612330565b905061232b8282612546565b919050565b6000604051905090565b600067ffffffffffffffff8211156123555761235461261e565b5b61235e8261264d565b9050602081019050919050565b600067ffffffffffffffff8211156123865761238561261e565b5b61238f8261264d565b9050602081019050919050565b600081519050919050565b600081519050919050565b600082825260208201905092915050565b600082825260208201905092915050565b60006123df826124c8565b91506123ea836124c8565b9250827fffffffffffffffffffffffffffffffffffffffffffffffffffffffffffffffff0382111561241f5761241e6125c0565b5b828201905092915050565b6000612435826124c8565b9150612440836124c8565b925082821015612453576124526125c0565b5b828203905092915050565b6000612469826124a8565b9050919050565b60008115159050919050565b60007fffffffff0000000000000000000000000000000000000000000000000000000082169050919050565b600073ffffffffffffffffffffffffffffffffffffffff82169050919050565b6000819050919050565b82818337600083830152505050565b60005b838110156124ff5780820151818401526020810190506124e4565b8381111561250e576000848401525b50505050565b6000600282049050600182168061252c57607f821691505b602082108114156125405761253f6125ef565b5b50919050565b61254f8261264d565b810181811067ffffffffffffffff8211171561256e5761256d61261e565b5b80604052505050565b6000612582826124c8565b91507fffffffffffffffffffffffffffffffffffffffffffffffffffffffffffffffff8214156125b5576125b46125c0565b5b600182019050919050565b7f4e487b7100000000000000000000000000000000000000000000000000000000600052601160045260246000fd5b7f4e487b7100000000000000000000000000000000000000000000000000000000600052602260045260246000fd5b7f4e487b7100000000000000000000000000000000000000000000000000000000600052604160045260246000fd5b6000601f19601f8301169050919050565b7f4552433732313a2063616c6c6572206973206e6f7420746f6b656e206f776e6560008201527f72206f7220617070726f76656400000000000000000000000000000000000000602082015250565b7f596f75206d7573742070726f7669646520612076616c696420546f6b656e205560008201527f5249000000000000000000000000000000000000000000000000000000000000602082015250565b7f4552433732313a207472616e7366657220746f206e6f6e20455243373231526560008201527f63656976657220696d706c656d656e7465720000000000000000000000000000602082015250565b7f4552433732313a207472616e736665722066726f6d20696e636f72726563742060008201527f6f776e6572000000000000000000000000000000000000000000000000000000602082015250565b7f4552433732313a20746f6b656e20616c7265616479206d696e74656400000000600082015250565b7f4552433732314d657461646174613a205552492073657420746f206120746f6b60008201527f656e207468617420646f65736e74206578697374000000000000000000000000602082015250565b7f4552433732313a207472616e7366657220746f20746865207a65726f2061646460008201527f7265737300000000000000000000000000000000000000000000000000000000602082015250565b7f4552433732313a20617070726f766520746f2063616c6c657200000000000000600082015250565b7f4552433732313a2061646472657373207a65726f206973206e6f74206120766160008201527f6c6964206f776e65720000000000000000000000000000000000000000000000602082015250565b7f4552433732313a206d696e7420746f20746865207a65726f2061646472657373600082015250565b7f4552433732313a20696e76616c696420746f6b656e2049440000000000000000600082015250565b7f4552433732313a20617070726f76616c20746f2063757272656e74206f776e6560008201527f7200000000000000000000000000000000000000000000000000000000000000602082015250565b7f4552433732313a20617070726f76652063616c6c6572206973206e6f7420746f60008201527f6b656e206f776e6572206f7220617070726f76656420666f7220616c6c000000602082015250565b6129d28161245e565b81146129dd57600080fd5b50565b6129e981612470565b81146129f457600080fd5b50565b612a008161247c565b8114612a0b57600080fd5b50565b612a17816124c8565b8114612a2257600080fd5b5056fea2646970667358221220e701826a22aecac71c7fdddb7778f276eff8b67ca652fd79e8e507119941aef264736f6c63430008040033",
  "linkReferences": {},
  "deployedLinkReferences": {}
}